:020000040800F2
:1000000000040020E30D0008F10D0008F30D0008C6
:10001000F50D0008F70D0008F90D000800000000BC
:10002000000000000000000000000000FB0D0008C0
:10003000FD0D000800000000FF0D0008010E000883
:10004000450E0008470E0008490E00084B0E000838
:100050004D0E00084F0E0008510E0008530E000808
:10006000550E0008570E0008590E00085B0E0008D8
:100070005D0E00085F0E0008610E0008630E0008A8
:10008000650E0008670E0008690E0008030E0008E0
:10009000030E0008030E0008030E0008730E00088C
:1000A000750E0008770E0008790E00087B0E000818
:1000B0007D0E00087F0E0008810E0008830E0008E8
:1000C000850E0008870E0008890E00088B0E0008B8
:1000D0008D0E00088F0E0008910E0008930E000888
:1000E000950E0008970E0008990E00089B0E000858
:1000F0009D0E00089F0E0008A10E0008A30E000828
:10010000A50E0008A70E0008A90E0008AB0E0008F7
:10011000AD0E0008AF0E0008B10E0008B30E0008C7
:10012000B50E0008B70E0008B90E0008BB0E000897
:1001300000F002F800F03AF80AA090E8000C8244BF
:100140008344AAF10107DA4501D100F02FF8AFF29C
:10015000090EBAE80F0013F0010F18BFFB1A43F0A5
:10016000010318473451000054510000103A24BFD5
:1001700078C878C1FAD8520724BF30C830C144BF0C
:1001800004680C607047000000230024002500264E
:10019000103A28BF78C1FBD8520728BF30C148BFEA
:1001A0000B6070471FB51FBD10B510BD01F0DDFB22
:1001B0001146FFF7F7FF01F02DFA01F0FBFB03B446
:1001C000FFF7F2FF03BC01F003FC000010B504468A
:1001D000C448844208D10121042000F01DFB002105
:1001E000042000F019FB46E0BF48844208D10121F9
:1001F000082000F011FB0021082000F00DFB3AE080
:10020000BA48844208D10121102000F005FB0021EA
:10021000102000F001FB2EE0B548844208D10121F6
:10022000202000F0F9FA0021202000F0F5FA22E069
:10023000B048844208D10121402000F0EDFA0021AD
:10024000402000F0E9FA16E0AB48844208D10121D1
:10025000802000F0E1FA0021802000F0DDFA0AE0C1
:10026000A648844207D10121801500F0D5FA00216B
:10027000A01500F0D1FA10BD10B50121084600F01C
:10028000CBFA0021012000F0C7FA10BD2DE9F041A2
:10029000024600250026002000230024002791F8B4
:1002A00003C00CF00F0591F803C00CF0100CBCF16A
:1002B000000F03D091F802C04CEA050591F800C088
:1002C000BCF1000F31D0146800202BE04FF0010C7E
:1002D0000CFA00F3B1F800C00CEA03069E4220D1EC
:1002E00083004FF00F0C0CFA03F7BC4305FA03FC34
:1002F0004CEA040491F803C0BCF1280F06D14FF07A
:10030000010C0CFA00FCC2F814C00AE091F803C01A
:10031000BCF1480F05D14FF0010C0CFA00FCC2F8FB
:1003200010C0401C0828D1D31460B1F800C0BCF143
:10033000FF0F34DD546800202EE000F1080C4FF070
:10034000010808FA0CF3B1F800C00CEA03069E425B
:1003500021D183004FF00F0C0CFA03F7BC4305FAD0
:1003600003FC4CEA040491F803C0BCF1280F05D14A
:1003700000F1080C08FA0CF8C2F8148091F803C0D8
:10038000BCF1480F07D100F1080C4FF0010808FA42
:100390000CF8C2F81080401C0828CED35460BDE889
:1003A000F0814FF6FF710180022181700421C1703C
:1003B00070470246002093680B400BB1012000E01B
:1003C000002070470146886880B2704702460020CE
:1003D000D3680B400BB1012000E0002070470146BC
:1003E000C86880B2704701617047416170470AB1C7
:1003F000016100E041617047C16070474FF4803295
:100400000A43826181618261826982697047024622
:1004100000203B4B18684FF68073184040EA0210EA
:100420000843374B186070473649C8617047F0B5CC
:100430000A460023002400210025314E7168C0F3D4
:10044000034583B200F44016B6F5401F08D121F0F1
:1004500070612B4E766826F07066294F7E6012E040
:1004600000F48016B6F5801F06D1032606FA05F4BF
:10047000A14341F0706106E0460D360103FA06F62D
:10048000B14341F0706122B1460D360103FA06F620
:1004900031431B4E7160F0BD30B500228B071C0F3D
:1004A0000F2303FA04F2164B08338C1053F8243050
:1004B0009343134C08348D1044F8253023468C1098
:1004C00053F824308C07240F00FA04F423430C4C17
:1004D00008348D1044F8253030BD0A49DC310860FD
:1004E0007047000000080140000C0140001001406E
:1004F0000014014000180140001C01400020014090
:100500000000014000002042DF48006840F0010088
:10051000DD49086008464068DC490840DA4948601F
:1005200008460068DA490840D7490860084600686C
:1005300020F4802008600846406820F4FE004860EF
:100540004FF41F0088607047CF49096821F480315B
:10055000CD4A11601146096821F480211160B0F57F
:10056000803F03D0B0F5802F0ED106E0C649096860
:1005700041F48031C44A116007E0C349096841F47D
:10058000A021C14A116000E000BF00BF704710B554
:1005900001460022002300204A11012A02D1BA4C50
:1005A000236806E0022A02D1B74C236A01E0B64C68
:1005B000636A01F01F02012494401C400CB1012029
:1005C00000E0002010BD38B5002000900024002578
:1005D00000BF3120FFF7DBFF05460098401C00906C
:1005E0000098B0F5A06F01D0002DF2D03120FFF7B8
:1005F000CEFF08B1012400E00024204638BD0146AA
:100600000020A14A106820F0F80040EAC100106004
:100610007047A04908607047024600209A4B58680E
:1006200020F47C1042EA01031843974B586070474E
:1006300098490866704701460020934A506820F0A8
:1006400003000843506070478F48406800F00C007A
:100650007047014600208C4A506820F0F0000843A3
:100660005060704701460020874A506820F4E060DF
:1006700008435060704701460020834A506820F4C8
:10068000605040EAC1005060704729B17E4A527AFA
:1006900002437D4B5A7204E07B4A527A82437A4B82
:1006A0005A7270477B49D831086070470146002074
:1006B000754A506820F4404008435060704700215C
:1006C000714A20321170704A82F82010012802D03D
:1006D00004280AD104E001216B4A2032117005E0A0
:1006E0000521694A2032117000E000BF00BF704749
:1006F0006949086070476449096A0143624A1162A6
:100700007047654944390860704730B500210022C0
:10071000002400235C4D6D6805F00C0121B1042913
:1007200005D0082923D105E05C4D056022E05B4D32
:1007300005601FE0544D6D6805F47012524D6D68F0
:1007400005F48034022505EB92421CB9544D554303
:1007500005600BE04C4D6D6805F400351DB1504D42
:100760005543056002E04D4D5543056002E04B4D99
:10077000056000BF00BF444D6D6805F0F001090938
:10078000484D6B5C0568DD4045603F4D6D6805F484
:10079000E061090A434D6B5C4568DD4085603A4D78
:1007A0006D6805F46051C90A3E4D6B5C4568DD40DB
:1007B000C560354D6D6805F44041890B3A4D6B5C61
:1007C000C568B5FBF3F5056130BD29B12E4A526904
:1007D00002432D4B5A6104E02B4A526982432A4B53
:1007E0005A61704729B1284A92690243264B9A619F
:1007F00004E0254A92698243234B9A61704729B1EC
:10080000214AD2690243204BDA6104E01E4AD269D0
:1008100082431D4BDA61704729B11B4AD2680243FB
:10082000194BDA6004E0184AD2688243164BDA604A
:10083000704729B1144A12690243134B1A6104E04C
:10084000114A12698243104B1A61704712494039AC
:10085000086070470F49C86470470B49C8717047FA
:100860000948406A40F08070074948627047014675
:100870000020054A92680A400AB1012000E00020E9
:100880007047014988727047001002400000FFF86D
:10089000FFFFF6FE000042428004424200127A004E
:1008A00000093D000000002010000020014600204B
:1008B000FD4A106800F03800084310607047FA499C
:1008C000096821F00801F84A1160114609680143DE
:1008D00011607047F449096821F01001F24A116073
:1008E00011460968014311607047F048EE494860BD
:1008F000EF4848607047EC48006940F08000EA49E2
:10090000086170470420E849C96801F0010109B194
:1009100001200EE0E449C96801F0040109B1022098
:1009200007E0E149C96801F0100109B1032000E0C6
:100930000420704708B500200090FF20009002E0DE
:100940000098401E009000980028F9D108BD70B5AD
:1009500004460425FFF7D6FF054605E0FFF7EAFF4A
:10096000FFF7D0FF0546641E012D01D1002CF5D103
:1009700004B90525284670BD70B50546042440F627
:10098000FF70FFF7E4FF0446042C19D1C648006944
:1009900040F00200C449086108464561006940F022
:1009A0004000086140F6FF70FFF7D1FF0446052CB8
:1009B00006D0BD48006941F6FD710840BA4908619A
:1009C000204670BD10B5042440F6FF70FFF7BFFF4E
:1009D0000446042C18D1B448006940F00400B24920
:1009E00008610846006940F04000086140F6FF7069
:1009F000FFF7ADFF0446052C06D0AB48006941F671
:100A0000FB710840A8490861204610BD10B50424B8
:100A100040F6FF70FFF79BFF0446042C3BD1A34830
:100A2000A1498860A24888600846006940F020001B
:100A300008610846006940F04000086140F6FF7018
:100A4000FFF785FF0446042C1CD19748006941F646
:100A5000DF710840944908610846006940F01000C1
:100A60000861A520934908800F20FFF770FF044616
:100A7000052C10D08C48006941F6EF7108408A4976
:100A8000086108E0052C06D08748006941F6EF713F
:100A9000084085490861204610BDF8B506460D4658
:100AA0000424002000900F20FFF751FF0446042C7F
:100AB00028D17D48006940F001007B4908613580FC
:100AC0000F20FFF744FF0446042C12D1B01C009005
:100AD000280C009908800F20FFF739FF0446052CE9
:100AE00010D07148006941F6FE7108406E490861F6
:100AF00008E0052C06D06C48006941F6FE710840FC
:100B0000694908612046F8BD70B505460E460424C3
:100B10000F20FFF71CFF0446042C13D16248006924
:100B200040F00100604908612E800F20FFF70FFFA1
:100B30000446052C06D05C48006941F6FE71084069
:100B400059490861204670BD70B505460E4604241B
:100B50000F20FFF7FCFE0446042C17D153485249DE
:100B60008860534888600846006940F010000861BA
:100B70002E800F20FFF7EBFE0446052C06D04A48D6
:100B8000006941F6EF71084047490861204670BD91
:100B90002DE9F04704464FF6FF763746B046B1469A
:100BA0000425E443E6B2C4F30727C4F307484FEA39
:100BB00014690F20FFF7CBFE0546042D40D13B48BA
:100BC000394988603A4888600846006940F010005A
:100BD0000861FF2E06D03748083006800F20FFF747
:100BE000B6FE0546042D08D1FF2F06D031480A3045
:100BF00007800F20FFF7ABFE0546042D0AD1B8F1A0
:100C0000FF0F07D02B480C30A0F800800F20FFF713
:100C10009EFE0546042D0AD1B9F1FF0F07D02548E5
:100C20000E30A0F800900F20FFF791FE0546052D2D
:100C300006D01D48006941F6EF7108401A49086165
:100C40002846BDE8F08770B50546042440F6FF70DD
:100C5000FFF77DFE0446042C49D1144812498860F0
:100C6000134888600846006940F020000861084683
:100C7000006940F04000086140F6FF70FFF767FE32
:100C80000446042C2AD10848006941F6DF71084067
:100C9000054908610846006940F0100008615DB12F
:100CA0000020044908800AE0002002402301674533
:100CB000AB89EFCD00F8FF1FA5204549088040F61D
:100CC000FF70FFF744FE0446052C10D04148006930
:100CD00041F6EF7108403F49086108E0052C06D055
:100CE0003C48006941F6DF7108403A4908612046F6
:100CF00070BD2DE9F04105460E46174604243648DE
:100D000034498860354888600F20FFF720FE04468C
:100D1000042C19D12F48006940F010002D490861BA
:100D200047F0F800304328432949891C08800F20E8
:100D3000FFF70DFE0446052C06D02648006941F653
:100D4000EF710840234908612046BDE8F081214841
:100D5000C069800870471F48006A704700201D491D
:100D6000C96901F0020109B1012000E000207047CB
:100D700000201849096801F0200109B1012000E0B4
:100D80000020704729B1134A12690243114B1A61BE
:100D900004E0104A126982430E4B1A617047014603
:100DA0000020012908D10B4AD26902F001020AB1E0
:100DB000012008E0002006E0064AD2680A400AB195
:100DC000012000E0002070470249C8607047000021
:100DD00000F8FF1F0020024023016745AB89EFCDDB
:100DE00070470B4880470B4981F308880A48004741
:100DF000FEE7FEE7FEE7FEE7FEE7FEE7FEE7FEE7CB
:100E0000FEE7FEE705480649064A074B7047000023
:100E1000E10D0008F019002031010008F013002056
:100E2000F0190020F0150020F015002070477047E1
:100E300000BFFEE700BFFEE700BFFEE77047704758
:100E400070477047704770477047704770477047EA
:100E500070477047704770477047704770477047DA
:100E600070477047704770477047704770477047CA
:100E700070477047704770477047704770477047BA
:100E800070477047704770477047704770477047AA
:100E9000704770477047704770477047704770479A
:100EA000704770477047704770477047704770478A
:100EB00070477047704770477047704700E0401EAA
:100EC0000128FCD870470022002100BF05E0002265
:100ED00000E0521CFF2AFCD9491C8142F7D370471D
:100EE00010B500210BE0002205E0002300E05B1CB0
:100EF000DE2BFCDB521CB2F57A6FF6DB491C81421B
:100F0000F1D310BD10B500BF712000F0EBFC202123
:100F1000FE48FFF74EFA044604F0010080F0010499
:100F2000002CF1D1C820FFF7CEFF10BD10B5502026
:100F300000F0D8FCF72000F0EAFC022000F0D2FC20
:100F4000FFF7E0FF072000F0CDFCA52000F0DFFC5C
:100F500010BD10B5122000F0C5FC6420FFF7B3FFF0
:100F6000FFF7D0FF10BD10B5102000F0BBFC00242F
:100F700003E0FF2000F0CBFC641C40F648308442C4
:100F8000F7D30220FFF79FFF132000F0ABFC0024F3
:100F900003E0FF2000F0BBFC641C40F648308442B4
:100FA000F7D30220FFF78FFF10BD10B59820D84966
:100FB00008700020D74908709820D749087000F0C1
:100FC000BDFC062000F08EFC172000F0A0FC1720CE
:100FD00000F09DFC172000F09AFC042000F082FC39
:100FE000FFF790FF002000F07DFC972000F08FFCC1
:100FF0000D2000F08CFC612000F074FCC4480078E7
:1010000000F085FCC348007800F081FCC2480078FD
:1010100000F07DFC502000F065FC972000F077FC8C
:1010200010BD10B5202000F05DFC002404E0BB4999
:10103000085D00F06CFC641C2C2CF8D3212000F01F
:1010400051FC002404E0B649085D00F060FC641C1B
:101050002A2CF8D3222000F045FC002404E0B149FA
:10106000085D00F054FC641C2A2CF8D3232000F007
:1010700039FC002404E0AC49085D00F048FC641C25
:101080002A2CF8D3242000F02DFC002404E0A749EA
:10109000085D00F03CFC641C2A2CF8D310BD2DE93F
:1010A000F04F85B00746884616461D46DDF838B035
:1010B000DDF840A000BF0F983844401E0490002087
:1010C0000390CDF80880019008EB0B00401E0090C3
:1010D0000F980BFB00F04FEAD009822000F002FCD1
:1010E000082000F014FC502000F0FCFB472000F02A
:1010F0000EFCFFF796FF912000F0F4FB902000F02B
:10110000F1FBF8B200F003FC0499C8B200F0FFFB59
:10111000039800F0FCFBDDF8088008F0FF0000F009
:10112000F6FB019800F0F3FB0099C8B200F0EFFB6A
:10113000002000F0ECFB102000F0D4FB002405E0C0
:10114000315DC943C8B200F0E2FB641C4C45F7D3E3
:10115000132000F0C7FBBAF1010F0BD1002407E008
:10116000295DC943C8B200F0D2FB285D3055641C2C
:101170004C45F5D3BAF1020F0AD1002406E0285DF0
:1011800000F0C5FB285DC0433055641C4C45F6D3C8
:10119000BAF1030F09D1002405E0002000F0B7FBED
:1011A000285D3055641C4C45F7D3122000F09AFBA3
:1011B0000A20FFF788FEFFF7A5FE05B0BDE8F08F17
:1011C00010B59820524908700020524908709820A4
:1011D0005149087000F0B2FB062000F083FB172095
:1011E00000F095FB172000F092FB172000F08FFB1A
:1011F000042000F077FBFFF785FE002000F072FB73
:10120000B72000F084FB0D2000F081FB302000F0BF
:1012100069FB3C2000F07BFB612000F063FB3C4855
:10122000007800F074FB3B48007800F070FB3A480F
:10123000007800F06CFB10BD2DE9F04F8BB0064636
:101240000F4690469946DDE914AB249D00BF701906
:10125000401E0490002003900297019007EB0A01C2
:10126000179801441A9801441D980144209801449C
:1012700023980844401E00900AFB05F0C0080A901D
:1012800017986843C00809901A986843C0080890E6
:101290001D986843C008079020986843C0080690CE
:1012A00023986843C0080590822000F01BFB0820AB
:1012B00000F02DFB502000F015FB472000F027FB2D
:1012C000FFF7AFFE912000F00DFB902000F00AFB2D
:1012D000F0B200F01CFB0499C8B200F018FB0398B0
:1012E00000F015FB029FF8B200F011FB019800F02E
:1012F0000EFB0099C8B200F00AFB002000F007FBCB
:10130000102000F0EFFA002419E00000000801406E
:10131000150000201600002017000020DE1900082C
:101320000A1A0008341A00085E1A0008881A000811
:1013300018F80410C943C8B200F0E9FA641C0A980E
:101340008442F5D3002406E01BF80410C943C8B258
:1013500000F0DDFA641C09988442F5D3002406E00D
:101360001899095DC943C8B200F0D1FA641C089805
:101370008442F5D3002406E01B99095DC943C8B235
:1013800000F0C5FA641C07988442F5D3002406E0F7
:101390001E99095DC943C8B200F0B9FA641C0698E9
:1013A0008442F5D3002406E02199095DC943C8B2FF
:1013B00000F0ADFA641C05988442F5D3132000F0C8
:1013C00091FA00240AE019F80410C943C8B200F0E9
:1013D0009EFA19F8040008F80400641C0A98844274
:1013E000F1D300240AE01699095DC943C8B200F0A0
:1013F0008EFA1698005D0BF80400641C099884426C
:10140000F1D300240AE01999095DC943C8B200F07C
:101410007EFA1998015D18980155641C0898844259
:10142000F1D300240AE01C99095DC943C8B200F059
:101430006EFA1C98015D1B980155641C0798844244
:10144000F1D300240AE01F99095DC943C8B200F036
:101450005EFA1F98015D1E980155641C069884422F
:10146000F1D300240AE02299095DC943C8B200F013
:101470004EFA2298015D21980155641C059884421A
:10148000F1D3122000F02EFA0A20FFF71CFDFFF71F
:1014900039FD0BB0BDE8F08F70B50546102000F0A7
:1014A00021FA002403E0FF2000F031FA641C40F62A
:1014B00048308442F7D3132000F014FA002404E0EB
:1014C000287800F024FA6D1C641C40F648308442F1
:1014D000F6D370BD0146002012E0C94A1154C94A32
:1014E0001154C94A1154C94A1154C94A1154C94A1C
:1014F0001154C94A1154C94A1154C94A1154401CC3
:1015000040F648329042E8DB704708B5012144209C
:10151000FFF768F90720ADF8000010208DF80300F0
:1015200002208DF802006946BE48FEF7AFFE182083
:10153000ADF8000010208DF8030002208DF80200A5
:101540006946B848FEF7A2FE2020ADF8000048200A
:101550008DF8030002208DF802006946B148FEF7BD
:1015600095FE4FF48050ADF8000010208DF8030078
:1015700002208DF802006946AB48FEF787FE08BDE1
:1015800010B5FEF7C1FF4FF48030FEF7DDFFFFF727
:101590001AF8A649087008460078012805D14FF4CA
:1015A000E0110004FFF738F80DE00120FFF731F8F3
:1015B00000BF2120FEF7EBFF0028FAD04FF46011A6
:1015C0000020FFF729F81020FFF784F90220FFF729
:1015D0006DF90020FFF73DF80020FFF74CF84FF4BD
:1015E0008060FFF73FF80120FFF722F800BF3920A5
:1015F000FEF7CDFF0028FAD00220FFF71CF800BF4D
:10160000FFF722F80828FBD1012144F20500FFF77B
:10161000E9F810BD92B0FFF7B3FFFFF776FFECE0FB
:10162000FF20FFF757FFFFF7C0FC8148FFF734FFAB
:10163000FFF78FFCFFF77AFC0A20FFF751FCFFF75A
:10164000B4FC7C48FFF728FFFFF783FCFFF76EFC34
:101650000520FFF745FCFFF7B3FD022010212B22E8
:10166000754BCDE900210290664A2820FFF717FD4F
:10167000FFF75CFCFFF7A4FD382014216F4A684B8C
:10168000CDE90D32CDE90F100B206D49634A1F23C0
:10169000CDE90932CDE90B106A485F4908226A4B4F
:1016A000CDE90532CDE907105A481F21674A584B4A
:1016B000CDE90221CDE900130490654B534A0A217C
:1016C0004020FFF7B9FDFFF731FC0A20FFF708FCC7
:1016D000FFF776FD032010212B22574BCDE9002187
:1016E0000290484A2820FFF7DAFCFFF71FFCFFF7BB
:1016F00067FD022010212B22564BCDE900210290DC
:10170000414A5D212820FFF7CAFCFFF70FFCFFF7D5
:1017100057FD38201421504A414BCDE90D32CDE917
:101720000F100B2046493D4A1F23CDE90932CDE970
:101730000B104A4838490822434BCDE90532CDE920
:10174000071034481F21464A314BCDE90221CDE92B
:1017500000130490434B2D4A0A214020FFF76CFDF3
:10176000FFF7E4FB0A20FFF7BBFBFFF71EFCFFF7C8
:10177000FAFBFFF7EEFBFFF7D9FBFFF721FD012096
:10178000982100912A4B1E4ACDE9011000210846FC
:10179000FFF785FCFFF7CAFB0A20FFF7A1FBFFF765
:1017A0000FFD0220982100912F4B154ACDE9011021
:1017B00000210846FFF773FCFFF7B8FB0A20FFF78C
:1017C0008FFBFFF7FDFC012098210091274B0C4A6D
:1017D000CDE9011000210846FFF761FCFFF7A6FBE9
:1017E0000A20FFF77DFBFFF7E0FBFFF7BCFBFFF7ED
:1017F000B0FBFFF79BFB00BFFEE711E7704700005F
:1018000018000020600B0020B60B00200C0C0020FC
:10181000E50C0020BE0D0020F60D0020CF0E0020AC
:101820001C0F002000080140001801401400002097
:10183000752500084D470008C9240008B123000899
:1018400064230008532200082C230008B21A000861
:101850003D1D00081F2500083D240008C81F000882
:10186000A12000087A210008BD300008053C0008CE
:1018700007E0002101E04A1CD1B20229FBDB421E35
:10188000D0B20028F5D1704770B504460120FFF7AB
:10189000EFFF002523E002212748FEF7A6FD0120E7
:1018A000FFF7E6FF04F0800020B101212248FEF797
:1018B0009AFD03E001212048FEF797FD6006040E23
:1018C0000120FFF7D5FF0120FFF7F8FA02211A489F
:1018D000FEF789FD0120FFF7CBFF681CC5B2082D7C
:1018E000D9DB70BD10B504460120FFF7C1FF04210C
:1018F0001148FEF77AFD08210F48FEF776FD2046D5
:10190000FFF7C2FF04210C48FEF76DFD10BD10B5B6
:1019100004460120FFF7ACFF04210748FEF765FDF0
:1019200008210548FEF75FFD2046FFF7ADFF0421C3
:101930000148FEF758FD10BD0008014010B5102108
:101940000748FEF752FD4FF47A70FFF7BCFA1021FA
:101950000348FEF748FD4FF47A70FFF7B4FA10BD64
:1019600000080140704770477047754600F02CF83A
:10197000AE4605006946534620F00700854618B07C
:1019800020B5FFF73FFABDE820404FF000064FF0CA
:1019900000074FF000084FF0000B21F00701AC46A4
:1019A000ACE8C009ACE8C009ACE8C009ACE8C009C3
:1019B0008D46704710B50446AFF300802046BDE861
:1019C0001040FEF7FCBB0000004870479013002059
:1019D00001491820ABBEFEE726000200704700193F
:1019E00001000001000000000000000000000000F5
:1019F00000000000000000000000000000000000E7
:101A000000000000000000000000001901000001BB
:101A100000000000000000000000000000000000C6
:101A200000000000000000000000000000000000B6
:101A3000000000008019010000010000000000000B
:101A40000000000000000000000000000000000096
:101A5000000000000000000000000000000040192D
:101A60000100000100000000000000000000000074
:101A70000000000000000000000000000000000066
:101A8000000000000000000000190100000100003B
:101A90000000000000000000000000000000000046
:101AA0000000000000000000000000000000000036
:101AB0000000FFFFFFFFFFFFFFFFFFFFFFFFFFFF34
:101AC000F800001C00001FF000000800000FD80004
:101AD000000800001B8C00001C0000318600003E46
:101AE0000000618300007F0000C1818000FF800151
:101AF0008180FFFFFFFFFF0180FFFFFFFFFF0180ED
:101B0000FFFFFFFFFF0180FFFFFFFFFF0180FFFFDF
:101B1000FFFFFF0180FFFFFFFFFF0180FFFFFFFFCF
:101B2000FF0180FFFFFFFFFF0180FFFFFFFFFF01BD
:101B300080FFFFFFFFFF0180FFFFFFFFFF0180FF2E
:101B4000FFFFFFFF0180FFFFFFFFFF01818000FF1C
:101B50008001818300007F0000C18600003E0000FC
:101B6000618C00001C000031D800000800001BF050
:101B700000000800000FF800001C00001FFFFFFF1E
:101B8000FFFFFFFFFFFFFFFFFFFFFFFFFFFFFFFF65
:101B9000FFFFFFFFFFFFFFFFFFFFFFFFFFFFFFFF55
:101BA000FFFFFFFFFFFFFFFFFFFFFFFFFFFFFFFF45
:101BB000FFFFFFFFFFFFFFFFFFFFFFFFFFFFFFFF35
:101BC000FFFFFFFFFFFFFFFFFFFFFFFFFFFFFFFF25
:101BD000FFFFFFFFFFFFFFFFFFFFFFFFFFFFFFFF15
:101BE000FFFFFFFFFFFFFFFFFFFFFFFFFFFFFFFF05
:101BF000FFFFFFFFFFFFFFFFFFFFFFFFFFFFFFFFF5
:101C0000FFFFFFFFFFFFFFFFFFFFFFFFFFFFFFFFE4
:101C1000FFFFFFFFFFFFFFFFFFFFFFFFFFFFFFFFD4
:101C2000FFFFFFFFFFFF8000FF8001FFFF00007F3D
:101C30000000FFFE00003E00007FFC00001C0000D2
:101C40003FF800000800001FF000000800000FF837
:101C500000001C00001FFFFFFFFFFFFFFFFFFFFF53
:101C6000FFFFFFFFFFFFFFFFFFFFFFFFFFFFFFFF84
:101C7000FFFFFFFFFFFC00001FFFFFFFF800000F4A
:101C8000DFFFFFF800001B8FFFFFFC00003187FF24
:101C9000FFF600006183FFFFE30000C181FFFFC189
:101CA00080018180FFFF80FFFF0180FFFF80FFFF39
:101CB0000180FFFF80FFFF0180FFFF80FFFF0180A9
:101CC000FFFF80FFFF0180FFFF80FFFF0180FFFF1C
:101CD00080FFFF0180FFFF80FFFF0180FFFF80FF8B
:101CE000FF0180FFFF80FFFF0180FFFF80FFFF01FA
:101CF00080FFFF80FFFF0180FFFF80FFFF018180E9
:101D000000C1FFFF8183000063FFFFC18600003731
:101D1000FFFFE18C00001FFFFFF1D800000FFFFF65
:101D2000FBF000000FFFFFFFF800001FFFFFFFFFA9
:101D3000FFFFFFFFFFFFFFFFFFFFFFFFFFFFFFFFB3
:101D4000FFFFFFFFFFFFFFFFFFFFFFFFFFFFFFFFA3
:101D5000FFFFFFFFFFFFFFFFFFDFFFFFFFFFFFFBB7
:101D60008FFFFFFFFFFFF187FFFFF7FFFFE183FF1B
:101D7000FFE3FFFFC181FFFFC1FFFF8180FFFF8005
:101D8000FFFF0180FFFF80FFFF0180FFFF80FFFF5B
:101D90000180FFFF80FFFF0180FFFF80FFFF0180C8
:101DA000FFFF80FFFF0180FFFF80FFFF0180FFFF3B
:101DB00080FFFF0180FFFF80FFFF0180FFFF80FFAA
:101DC000FF0180FFFF80FFFF0180FFFF80FFFF0119
:101DD00080FFFF80FFFF01818000C18001818300BF
:101DE00000630000C1860000360000618C00001C0A
:101DF000000031D800000800001BF00000080000BF
:101E00000FF800001C00001FFFFFFFFFFFFFFFFF98
:101E1000FFFFFFFFFFFFFFFFFFFFFFFFFFFFFFFFD2
:101E2000FFFFFFFFF800001FFFFFFFF000000FFFA4
:101E3000FFFFF800000FFFFFFFFC00001FFFFFFF88
:101E4000FE000037FFFFFFFF000063FFFFFFFF8082
:101E500000C1FFFFFFFFFFFF80FFFFFFFFFFFF80CD
:101E6000FFFFFFFFFFFF80FFFFFFFFFFFF80FFFF80
:101E7000FFFFFFFF80FFFFFFFFFFFF80FFFFFFFF70
:101E8000FFFF80FFFFFFFFFFFF80FFFFFFFFFFFF60
:101E900080FFFFFFFFFFFF80FFFFFFFFFFFF80FFCF
:101EA000FFFFFFFFFF80FFFFFFFFFFFF80FFFFFF40
:101EB000FF8000C18001FFFF0000630000FFFE0003
:101EC000003600007FFC00001C00003FF800000806
:101ED00000001FF000000800000FF800001C0000C8
:101EE0001FFFFFFFFFFFFFFFFFFFFFFFFFFFFFFFE2
:101EF000FFFFFFFFFFFFFFFFFFFFFFFFFFF80000F7
:101F00001FFFFFFFF000000FFFFFFFD800000FFFD3
:101F1000FFFB8C00001FFFFFF186000037FFFFE191
:101F200083000063FFFFC1818000C1FFFF8180FF4C
:101F3000FF80FFFF0180FFFF80FFFF0180FFFF8028
:101F4000FFFF0180FFFF80FFFF0180FFFF80FFFF99
:101F50000180FFFF80FFFF0180FFFF80FFFF018006
:101F6000FFFF80FFFF0180FFFF80FFFF0180FFFF79
:101F700080FFFF0180FFFF80FFFF0180FFFF80FFE8
:101F8000FF0180FFFF80FFFF0181FFFFC180018112
:101F900083FFFFE30000C187FFFFF60000618FFFB2
:101FA000FFFC000031DFFFFFF800001BFFFFFFF820
:101FB00000000FFFFFFFFC00001FFFFFFFFFFFFF00
:101FC000FFFFFFFFFFFFFFFFFFFFFFFFFFFFFFFF21
:101FD000FFFFFFFFFFFFF800001C00001FF00000E4
:101FE0000800000FD800000800001B8C00001C0037
:101FF000003186000036000061830000630000C1EC
:10200000818000C180018180FFFF80FFFF0180FF90
:10201000FF80FFFF0180FFFF80FFFF0180FFFF8047
:10202000FFFF0180FFFF80FFFF0180FFFF80FFFFB8
:102030000180FFFF80FFFF0180FFFF80FFFF018025
:10204000FFFF80FFFF0180FFFF80FFFF0180FFFF98
:1020500080FFFF0180FFFF80FFFF0180FFFF80FF07
:10206000FF0181FFFFC180018183FFFFE30000C109
:1020700087FFFFF60000618FFFFFFC000031DFFFEC
:10208000FFF800001BFFFFFFF800000FFFFFFFFC41
:1020900000001FFFFFFFFFFFFFFFFFFFFFFFFFFF2E
:1020A000FFFFFFFFFFFFFFFFFFFFFFFFFFFFFFFF40
:1020B000FFFFFFFFFFFFFFFFFFFFFFFFFFDFFFFF50
:1020C000FFFFFFFF8FFFFFFFFFFFFF87FFFFFFFF08
:1020D000FFFF83FFFFFFFFFFFF81FFFFFFFFFFFF0A
:1020E00080FFFFFFFFFFFF80FFFFFFFFFFFF80FF7D
:1020F000FFFFFFFFFF80FFFFFFFFFFFF80FFFFFFEE
:10210000FFFFFF80FFFFFFFFFFFF80FFFFFFFFFFDD
:10211000FF80FFFFFFFFFFFF80FFFFFFFFFFFF804C
:10212000FFFFFFFFFFFF80FFFFFFFFFFFF80FFFFBD
:10213000FFFFFFFF80FFFFFFFFFFFF818000FF80A9
:1021400001FF8300007F0000FF8600003E00007F4B
:102150008C00001C00003FD800000800001FF000A9
:10216000000800000FF800001C00001FFFFFFFFF29
:10217000FFFFFFFFFFFFFFFFFFFFFFFFFFFFFFFF6F
:10218000FFFFFFFFFFFFFFFFF800001C00001FF034
:1021900000000800000FD800000800001B8C0000A1
:1021A0001C000031860000360000618300006300DF
:1021B00000C1818000C180018180FFFF80FFFF019D
:1021C00080FFFF80FFFF0180FFFF80FFFF0180FF96
:1021D000FF80FFFF0180FFFF80FFFF0180FFFF8086
:1021E000FFFF0180FFFF80FFFF0180FFFF80FFFFF7
:1021F0000180FFFF80FFFF0180FFFF80FFFF018064
:10220000FFFF80FFFF0180FFFF80FFFF0180FFFFD6
:1022100080FFFF01818000C1800181830000630095
:1022200000C1860000360000618C00001C000031F7
:10223000D800000800001BF000000800000FF800A4
:10224000001C00001FFFFFFFFFFFFFFFFFFFFFFF5E
:10225000FFFFFFFFFFFFFFFFFFFFFFFFFFFFFFFF8E
:10226000FFF800001FFFFFFFF000000FFFFFFFD887
:1022700000000FFFFFFB8C00001FFFFFF186000036
:1022800037FFFFE183000063FFFFC1818000C1FFD2
:10229000FF8180FFFF80FFFF0180FFFF80FFFF01C4
:1022A00080FFFF80FFFF0180FFFF80FFFF0180FFB5
:1022B000FF80FFFF0180FFFF80FFFF0180FFFF80A5
:1022C000FFFF0180FFFF80FFFF0180FFFF80FFFF16
:1022D0000180FFFF80FFFF0180FFFF80FFFF018083
:1022E000FFFF80FFFF0180FFFF80FFFF0181800073
:1022F000C1800181830000630000C18600003600B8
:1023000000618C00001C000031D800000800001B98
:10231000F000000800000FF800001C00001FFFFF85
:10232000FFFFFFFFFFFFFFFFFFFFFFFFFFFFFFFFBD
:10233000FFFFFFFFFFFFFFFFFFFFFFFFFFFFFFFFAD
:10234000E1FFFFFFFFFFFFE1FFFFFFFFFFFFE1FFF7
:10235000FFFFFFFFFFE1FFFFFFFFFFFFFFFFFFFFAB
:10236000FFFFFFFFFFFFFFFFFFFFFFFFFFFFFFFF7D
:10237000FFFFFFFFFFFFFFFFFFFFFFFFFFFFFFFF6D
:10238000E7FFFFFFFFFFFFC3FFFFFFFFFFFF99FF17
:10239000FFFFFFFFFF99FFFFFFFFFFFFC3FFFFFFEF
:1023A000FFFFFFE7FFFFFFFFFFFFFFFFFFFFFFFF55
:1023B000FFFFFFFFFFFFFFFFFE01FFFFFFFFFFFC2F
:1023C00000FFFFFFFFFFFC00FFFFFFFFFFE601BF75
:1023D000FFFFFFFFC3031FFFFFFFFFC1FE0FFFFF54
:1023E000FFFFC1FE0FFFFFFFFFC1FE0FFFFFFFFF5B
:1023F000C1FE0FFFFFFFFFC1FE0FFFFFFFFFC1FE8A
:102400000FFFFFFFFFC1FE0FFFFFFFFFC1FE0FFF2A
:10241000FFFFFFC3FF1FFFFFFFFFE7FFBFFFFFFF40
:10242000FFFFFFFFFFFFFFFFFFFFFFFFFFFFFFFFBC
:10243000FFFFFFFFFFFFFFFFFFFFFFFFFFFFFFFFAC
:10244000FFFFFFFFFE01F007FFFFFFFC00E003FFBF
:10245000FFFFFC00E003FFFFFFE601B007FFFFFF07
:10246000C303180FFFFFFFC1FE0FFFFFFFFFC1FEF9
:102470000FFFFFFFFFC1FE0FFFFFFFFFC1FE0FFFBA
:10248000FFFFFFC1FE0FFFFFFFFFC1FE0FFFFFFFBA
:10249000FFC1FE0FFFFFFFFFC1FE0FFFFFFFFFC3E6
:1024A000FF1FFFFFFFFFE7FFBFFFFFFFFFFFFFFF74
:1024B000FFFFFFFFFFFFFFFFFFFFFFFFFFFFFFFF2C
:1024C000FFFFFFFFFFFFFFFFFFFFFFFFFFFFFFFB20
:1024D000BFFBBBC003FB7FDF4BC057D54BD57FD5C0
:1024E0004BC017DECBFFFFFFFFFFFFE003EEF7EE71
:1024F000EFEEFFEEFFE07FDE9FDEEFDEF7FEC3FFD5
:10250000FFFFFFFFFBE007EBFFEBBBE09BEAABCA83
:10251000B7EAB7E0ABEB9BEBFBFFFFFFFFFFFFFF73
:10252000FFFFFFFFFFFDDFFBDFF05FCFDFFDDFFD24
:1025300083C0DFFB5FF75FEF5FFC5FFFFFFFFFFF25
:10254000FFE003EEF7EEEFEEFFEEFFE07FDE9FDE53
:10255000EFDEF7FEC3FFFFFFFFFFFBE007EBFFEB44
:10256000BBE09BEAABCAB7EAB7E0ABEB9BEBFBFF88
:10257000FFFFFFFFFFFFFFFFFFFFFFFFFFFFDFFF8B
:10258000FFFFFFFFFFDFFFFFFFFFFFFFFFFFFFFF7B
:10259000FFDFFFFFFFFFFFFFDFFFFFFFFFFFFFFF8B
:1025A000FFFFFFFFDFFFFFFFFFFFFFDFFFFFFFFF7B
:1025B000FFFFFFFFFFFFFFDFFFFFFFF07FFFDFFFFA
:1025C000FFFFFFFFFFFFFFFFFFFFDFFFFFFF8007B2
:1025D000FFDFFFFFFFFFFFFFFFFFFFFFFFDFFFFF4B
:1025E000FC00F1FFDFFFFFFFFFFFFFFFFFFFFFFF2B
:1025F000DFFFFFF80FFEFFDFFFFFFFFFFFFFFFFF23
:10260000FFFFFFDFFFFFE07FFFFFDFFFFFFFFFFFB9
:10261000FFFFFFFFFFFFDFFFFFC0FFFFFFDFFFFF49
:10262000FFFFFFFFFFFFFFFFFFDFFFFF83FFFFFF56
:10263000DFFFFFFFFFFFFFFFFFFFFFFFDFFFFF07E2
:10264000FFFFFFDFFFFFFFFFFFFFFFFFFFFFFFDFDA
:10265000FFFE0FFFFFFFDFFFFFFFFFFFFFFFFFFF9B
:10266000FFFFDFFFFC0FFFFFFFDFFFFFFFFFFFFFAD
:10267000FFFFFFFFFFDFFFF81FFFFFFFDFFFFFFF91
:10268000FFFFFFFFFFFFFFFFDFFFF83FFFC3FFDF9D
:10269000FFFFFFFFFFFFFFFFFFFFFFDFFFF07FFCFC
:1026A000003FDFFFFFFFFFFFFFFFFFFFFFFFDFFF39
:1026B000F07FF0000FDFFFFFFFFFFCFFFFFFFFFFDA
:1026C000FFDFFFE0EFE01FF7DFFFFFFFFFF9FFFF96
:1026D000FFFFFFFFDFFFE0E7C07FFFDFFFFFFFFF40
:1026E000F1F8FFFFFFFFFFDFFFC1E181FC3FDFFFEC
:1026F000FFFFFFE300FFFFFFFFFFDFFFC1E003E09D
:1027000007DFFFFFFFFFE000FFFFFFFFFFDFFFC16D
:10271000E007C063DFFFFFFFFFC003FFFFFFFFFF16
:10272000DFFF81E00F03F9DFFFEFFFFF807FFFFF97
:10273000FFFFFFDFFF83E01E07FDDFFFEFFFFF8FDF
:10274000FFFFFFFFFFFFDFFF83E03C1FFDDFFBEF2D
:10275000FFFFFFFFFFFFFFFFFFDFFF83F0381FFEDC
:10276000DFF9DFFFFFFFFFFFFFE7FFFFDFFF83F87A
:10277000703FFEDFF13FFFFFFFFCFFFFCFFFFFDFFA
:10278000FF03FCF07FFEDFF07FFFFFFFF8FFFE009E
:102790003FFFDFFF03FCE07FFEDC00FFFFFFFFF8F1
:1027A000FFFCFFFFFFDFFF03FFC0FFFEDDE07FFF59
:1027B000FFFFF9FFFFBABFFFDFFF03EFC1FFFEDF3F
:1027C000E77FFFFFFFFFFFFF0ABFFFDFFF03E78198
:1027D000FFFDDFEF3FFFFFFFFFFFFCA97FFFDFFFF4
:1027E00003E383FFFDDFFF8FFFFFFFF3FFFCA53F48
:1027F000FFEFFF83E183FFFDDFFFCFFFFFFE71FFF0
:10280000FEA2BFFFF7FF81E007FFFBDFFFCFFFFF67
:10281000E070FFFE08BFFFFBFF81E007FFF3DFFF73
:10282000EFFFFF807CFFFE2C7FFFFDFF81E00FFFAD
:10283000F7DFFFEFFFFF80FCFFFFA9FFFFFEFF8038
:10284000E00FFFE7DFFFFFFFFF9CFCFFFF86FFFFBE
:10285000FF7FC0E01FFFCFDFFFFFFFFF9C78FFFF80
:10286000FF7FFFFFBFC0601FFF9FDFFFFFFFFF9CD9
:1028700001FFFFEFBFDDDFDFC0603FFF1FDFFFFFB6
:10288000FFFF9E03FFFEAA7FDDDFEFE0603FFE3F1C
:10289000DFFFDFFFFF9F0FFFFEAA7E001FF7E06054
:1028A0007FFC7FDFDCDFFFFFBFC7FFFEA0FFDBFF9A
:1028B000FBF0607FF0FFDFCD1FFFFFFF87FFFEA86B
:1028C000BFD5DFFDF8607FC1FFDFFF9FFFFFFF0780
:1028D000FFFEAABFB4DFFEFC60C003FFDFFE5FFFA8
:1028E000FFFE27FFFC0A3F955FFF7E60C007FFDF0A
:1028F00092DFFFFFFC67FFFEAAFFA15FFFBF6180C1
:102900001FFFDF82DFFFFFF8E7FFFEA4FEB13FFFFE
:10291000DFE1807FFFDE12DFFFFFF1E0FFFEA07F3F
:1029200035BFFFEFE303FFFFDDA00FFFFFE300FF75
:10293000FEA97FA53FFFF7E3FFFFFFDF35EFFFFFB6
:10294000C000FFFEAD3F94DFFFFBE3FFFFFFDFFDB5
:10295000E7FFFF8007FFFEEEBFB5DFFFFDE7FFFFEC
:10296000FFDFFDF7FFFF80E7FFFFEFFFFFFFFFFE49
:10297000E7FFFFFFDFFFF7FFFFFFFFFFFFFFFFFFA7
:10298000FFDFEF6FFFFFFFDFFFF7FFFFFFFFFFFF3F
:10299000FFFFFFFFDBEFAFFFFFFFDFFFF7FFFFDF13
:1029A000FFFFFFFFFE001FDBEFAFFFFFFFDFFFFFBB
:1029B000FFFC9FFFFFFFFFFEFFBFD9EFBFFFFFFF41
:1029C000DFFFFFFFF83FFFFFFFFFFEFFBFDADFB7CC
:1029D000FFFFFFDFFDFFFFF87FFFFFFFFFFEFFBFF1
:1029E000DB5FABFFFFFFDFFBFFFFFBFFFFFFFF9E98
:1029F0007EFFBFDB9F9DFFFFFFDFFBFFFFFFDFFFD2
:102A0000FFFF9E7EFFBF039FBEFFFFFFDFFBFFFFB9
:102A1000FC9FFFFFFFFFFEFFBFDB5FFF7FFFFFDFCE
:102A2000627FFFF83FFFFFFFFFFEFFBFDB5FFFBFDF
:102A3000FFFFDE463FFFF87FFFFFFFFFFEFFBFDA2D
:102A4000EFFFDFFFFFDE1577FFFBFFFFFFFFFFFE5E
:102A5000001FD9EFFFEFFFFFDC3477FFFFFFFFFF21
:102A6000FFFFFFFFFFDFEFFFF7FFFFD034F3FFFFB4
:102A7000FFF8FFFFFFFFFFFFDFEFFFFBFFFFDC378C
:102A8000F3FFFFFF00FFFFFFFFFFFFDDEFFFFDFF95
:102A9000FFDC8003FFFFE000FFFFFFFFFFFFDDEF34
:102AA000FFFEFFFFDEE7FFFFFF8038FFFF7F7FFFB6
:102AB000FF000FFFFF7FFFDFE7FFFFFF8E38FFFE06
:102AC000007FFFFFDBFFFFFFBFFFDFE7FFFFFF8EA2
:102AD00038FFFFFF7FFFFFDBFFFFFFDFFFDFE7FFC9
:102AE000FFFF8E38FFFFFFFFFFFFF6FFFFFFEFFF47
:102AF000DFE7FFFFFF8E38FFFFFFFFCF3FB6BFFFCF
:102B0000FFF7FFDFFFFFFFFF8E38FFFFFFFFCF3F25
:102B1000B6DFFFFFFBFFDFFFFFFFFF8FFFFFFF9F22
:102B20007FFFFFB6EFFFFFFDFFDFFFFFFFFF8FFF20
:102B3000FFFE5F7FFFFF06EFFFFFFEFFDFFFFFFFF0
:102B4000FFFF8FFFFEDF7FFFFFB6EFFFFFFF7FDF9F
:102B5000FEDFFFFFFF8FFFFEEEFFFFFFB00FFFFF67
:102B6000FFBFDFFD9FFFFFFF8FFFFEF1FFFFFFB6FF
:102B7000FFFFF7B7DFDF953FFFFFFF8FFFFFFFFF8F
:102B8000FFFFF6FFFFF1B7EFDF947FFFFFFFFFFFCF
:102B9000FFFFFFFFFFF7FFFFFC37F7DC0007FFFF3A
:102BA000FFF8FFFF7F7F8E7FF7EFFFFF81FBDD08E0
:102BB000FFFFFFFF00FFFEFE7F77BFE6EFFFFE3760
:102BC000FDDF42FFFFFFE007FFFEFD7F77BFC6EF9F
:102BD000FFF9B7FEDFFDBFFFFF801FFFFEF37F772A
:102BE000BFD6EFFFF7FFFE5FC91FFFFF8F1FFFFF7D
:102BF0000E7F7BBFB6EFFFFFFFFE1FC83FFFFF8FBB
:102C00001FFFFFFFFF7BBF700FFFFFFFFE1FC83FCF
:102C1000FFFF8F1FFFFFFFFF987FB6EFFFFFFFFE55
:102C20001F8B3FFFFF8F1FFFFFBDFFFFFFD6EFFF93
:102C3000FFFFFE1F92BFFFFF8E3FFFFFDBFFFFFF87
:102C4000E6EFFFFFF87E1FD2BFFFFF803FFFFFE7E9
:102C5000FF003FE6EFFFFFF87E1FFB1FFFFFE0FED8
:102C6000FFFFE7FF7BFFF7EFFFFFF87E1FFFFFFF90
:102C7000FFFFF8FFFFDBFF7BFFF7FFFFFFFC7E1F7F
:102C8000FFFFFFFFFFE1FFFFBDFF7BFFFFFFFE1F19
:102C9000FE7E1FFFFFFFFFFF87FFFFFFFF7BFFFFA2
:102CA000CFFC1CFE7E1FFFFFFFFFFC07FFFFFFFFA7
:102CB0007BFF003FFC18FE7E1FFFFFFFFFF0C7FFFA
:102CC000FFFFFF87FF5FFFF8F8FC7E1FFFFFFFFF9E
:102CD000C3C7FFFF7F7FFFFF581FF9F0787E1FFFFC
:102CE000FFFFFF8FC7FFFE007FFFFF5BFFF9E020C4
:102CF000FE1FE1FFFFFF8007FFFFFF7F003F500F38
:102D0000F8C001FE1FEEFFFFFFF000FFFFFFFFFF17
:102D1000FF5BDFF80603FE1FEA7FFFFFFFF0FFFF08
:102D2000FFFFFFFF0BDFF80F07FE1F003FFFFFFF56
:102D3000FFFFFFFFFFFFFFF81FFC1FF87E1F021FB2
:102D4000FFFFFFFFFFFF9F7FFFFFFFFFFFFFF87EFB
:102D50001FD2EFFFFFFFF8FFFE5F7FFFFF806FFFD7
:102D6000FFF87E1FDE6FFFFFFF00FFFEDF7FFFFF2C
:102D7000FFEFFFFFFC7E1FC0EFFFFFE007FFFEEE4F
:102D8000FFFFFF000FFE1FFE7E1FE7EFFFFF801F0C
:102D9000FFFEF1FFFFFFFFFFFC1CFE7E1FFFEFFFAA
:102DA000FF8F1FFFFFFFFFFFFFFFEFFC18FE7E1FDF
:102DB000FFCFFFFF8F1FFFFFFFFFFFFFFF9FF8F811
:102DC000FC7E1FFF0FFFFF8F1FFFFF7F7FFFFF00B6
:102DD0007FF9F0787E1FFFFFFFFF8F1FFFFEFE7F52
:102DE000FFFF5BFFF9E020FE1FFFFFFFFF8E3FFFAD
:102DF000FEFD7FFFFF5A3FF8C001FE1FFFFFFFFFF0
:102E0000803FFFFEF37FFFFF5ABFF80603FE1FFF60
:102E1000FFFFFFE0FFFFFF0E7FFFFF5ABFF80F0726
:102E2000FE1FFFFFFFFFFFF8FFFFFFFFFFFF5ABF7F
:102E3000FC1FFFFE1FFCFFFFFFFF00FFFFFFFFFF68
:102E4000FF5AAFFFFFFFFE1FFDFFFFFFE000FFFF88
:102E5000FFFFFFFF5A2FFFFF9FFE1FBDFFFFFF80F9
:102E600038FFFFFFFFFFFF5BEFFFFF1FFE1F9DFF10
:102E7000FFFF8E38FFFFFFFFFFFF081FFFFF1FFE52
:102E80001F39FFFFFF8E38FFFFFFFFFFFFFFFFFF30
:102E9000FFFFFE1F7BF7FFFF8E38FFFFFFFFFFFFE7
:102EA000FFFFFFFFFFFE1F63F7FFFF8E38FFFFFFEF
:102EB000FFFFFFFFCFFFFC7FFE1F0007FFFF8E38E5
:102EC000FFFFFFFFFFFF003FFFF01FFE1F37FFFF69
:102ED000FF8FFFFFFFFFFFFFFF5FFFFFE01FFE1FF2
:102EE00077FFFFFF8FFFFFFFFFFFFFFF581FFFC7A9
:102EF0009FFE1FF7FFFFFFFFF8FFFFFFFFFFFF5BD6
:102F0000FFFF8F9FFE1FF7FFFFFFFF00FFFFFFFF89
:102F1000FFFF500FFF9F9FFE1FFBFFFFFFE007FF1C
:102F2000FFFFFFFFFF5BDFFF8F1FFE1FFFFFFFFFA6
:102F3000803FFFFFFFFFFFFF0BDFFF803FFE1FFF14
:102F4000FFFFFF8E3FFFFFFFFFFFFFF81FFFC07F68
:102F5000FE1FFFFFFFFF8E3FFFFFFFFFFFFFFFFF93
:102F6000FFE1FFFE1FFFFFFFFF8E0FFFFFFFFFFFD1
:102F7000FF806FFFFC7FFE1FFFFFFFFF8E03FFFF41
:102F8000FFFFFFFFFFEFFFF01FFE1FFFFFFFFF8CA4
:102F900070FFFFFFFFFFFF000FFFE01FFE1FFFFF9F
:102FA000FFFF807CFFFFFFFFFFFFFFFFFFC79FFECC
:102FB0001FFFFFFFFFC1FFFFFFFFFFFFFFFFFFFF3F
:102FC0008F9FFE1FFFFFFFFFFFFFFFFFFFFFFFFFC2
:102FD000FFFFFF9F9FFE1FFFFFFFFFFFFFFFFFFFA2
:102FE000FFFFFFFFFFFF8F1FFE1FFFFFFFFFFFFF22
:102FF000FFFFFFFFFFFFFFFFFF803FFE1FFFFFFF01
:10300000FFFFFFFFFFFFFFFFFFFFFFFFC07FFE1F70
:10301000FFFFFFFFFFFFFFFFFFFFFFFFFFFFFFE1DE
:10302000FFFE1FFFFFFFFFFFFFFFFFFFFFFFFFFF91
:10303000FFFFFFFFFE1FFFFFFFFFFFFFFFFFFFFF81
:10304000FFFFFFFFFFFFFFFE1FFFFFFFFFFFFFFF71
:10305000FFFFFFFFFFFFFFFFFFFFFE1FFFFFFFFF61
:10306000FFFFFFFFFFFFFFFFFFFFFFFFFFFE1FFF51
:10307000FFFFFFFFFFFFFFFFFFFFFFFFFFFFFFFF60
:10308000FE1FFFFFFFFFFFFFFFFFFFFFFFFFFFFF31
:10309000FFFFFFFE1FFFFFFFFFFFFFFFFFFFFFFF21
:1030A000FFFFFFFFFFFFFE1FFFFFFFFFFFFFFFFF11
:1030B000FFFFFFFFFFFFFFFFFFFE1FFFFFFFFFFF01
:1030C000FFFFFFFFFFFFFFFFFFFFFFFFFFFFFFFF10
:1030D000FFFFFFFFFFFFFFFFFFFFFFFFFFFFFFFF00
:1030E000FFFFFFFFFFFFFFFFFFFFFFFFFFFFFFFFF0
:1030F000FFFFFFFFFFFFFFFFFFFFFFFFFFFFFFFFE0
:10310000FFFFFFFFFFFFFFFFFFFFFFFFFFFFFFFFCF
:10311000FFFFFFFFFFFFFFFFFFFFFFFFFFFFFFFFBF
:10312000FFFFFF9FFF7DF7FFFFFFFFFFFFFFBFFFD9
:10313000FFFFFFFFFFFE7FFF7BF7FFFFFFFFFFFEAD
:103140000FBFFFFDFBFFFFFFE18078000FFFFFFFD8
:10315000FFFFFC07BFFFF803FFFFFFFDF57F7BF7D5
:10316000FFFFFFFFFFF803BFFFF803FFFFFFF86B50
:103170007EEDF7FFFBDBFFFFF9F3BFFFFFFBFFFF78
:10318000FFE55AFE6C6FFFF8DBFFFFF9E3BFFFFFBF
:10319000FFFFFFFFCD35BE81AFFFFE1BFFFFF80332
:1031A000BFFFFFFFFFFFFFEC4338EDDFFFFFC0FF76
:1031B000FFFC03BFFFFFFFFFFFFFE16CFECD9FFFA2
:1031C000FF1BFFFFFE09BFFFFFFBFFFFFFFD51FEDF
:1031D0002C6FFFFCDBFFFFFFFFBFFFFFFBFFFFFFCD
:1031E000FC3EFEEDF7FFFBFFFFFFFFFFBFFFFFFF12
:1031F000FFFFFFFFFFFFEDFFFFFFFFFFFFF803BF34
:10320000FFFFFBFFFFFFFF7F7FFFFFFFFFFFFFFFD2
:10321000F803BFFFFCFBFFFFFFFF7B7E000FFFFFFC
:10322000FDFFFFF803BFFFF8FBFFFFFFF55AFEFFAE
:10323000DFFFFFF8FFFFFFFFBFFFFA73FFFFFFF5A0
:1032400052FEFFDFFFFFFCFFFFFBFFBFFFFB07FF9F
:10325000FFFFF50BBEFFDFFF8F7EFFFFF8FFBFFF15
:10326000FB8FFFFFFFF54BBEFFDFFFBE7EFFFFF8CA
:103270007FBFFFFFFFFFFFFFE0587EFFDFFF7E7E87
:10328000FFFFFC03BFFFFFCFFFFFFFF55BFEFFDF8C
:10329000FF7E7EFFFFFF03BFFFFF8FFFFFFFF528CD
:1032A000FEFFDFFF7E3DFFFFFC03BFFFFE2FFFFFA2
:1032B000FFF572FEFFDFFF7D19FFFFF87FBFFFFC08
:1032C0006FFFFFFFFF797E000FFF3B03FFFFF8FF5B
:1032D000BFFFF803FFFFFFFF7FFFFFFFFF8387FFB5
:1032E000FFFBFFBFFFF803FFF87FFFFFFFFFFFFFBC
:1032F0008FFFFFFFFFFFBFFFFFEFFC007FFFFFFF20
:10330000FFFFFFFFFFFFFFF80FBFFFFFFFE0007FA2
:10331000FFFFFFFFFFFFFFFDFFFFF807BFFFFFFFFE
:10332000E0007FFFFFFFFFFFFFFFF8FFFFF803BF95
:10333000FFFFFFE11C7FFFFFFFFFFFFFFFFCFFFF21
:10334000FFF3BFFFFFFFE31C7FFFFFFFFFFFFF8FC8
:103350007EFFFFFFF3BFFFFBFBE31C7FFEFEFFDFF3
:10336000DFFFBE7EFFFFF803BFFFF803E31C7FFF14
:10337000FFFFFFFFFF7E7EFFFFF807BFFFF803E3BD
:103380001C7FFFFFFFFFFFFF7E7EFFFFF80FBFFFE9
:10339000FBFBE3FFFFFFFFFFFFFFFF7E3DFFFFFFA4
:1033A000FFBFFFFFFFE3F87FFFFFFFFFFFFF7D1978
:1033B000FFFFFFFFBFFFFBFBFC007FFFFFFFFFFFE7
:1033C000FF3B03FFFFF803BFFFF803E0007FFFFFB1
:1033D000FFE79FFF8387FFFFF803BFFFF803E003CA
:1033E000FFFF7EFFDBDFFF8FFFFFFFFC7FBFFFFEE6
:1033F0007BE1FFFFFE00FFDDDFFFFFFFFFFFFE3F82
:10340000BFFFFF1FFFF87FFFFEFFDDDFFFFFFFFFB6
:10341000FFFF8FBFFFFB8FFC007FFFFFFFCE3FFF53
:10342000FFFFFFFFFFC7BFFFF803E0007FFFFFFFC5
:10343000FFFFFFFFDFFFFFF803BFFFF803E007FF19
:10344000FFFEFFDFDFFFFFC7FFFFF803BFFFFBFF4C
:10345000E00FFFFF3EFFC01FFFFF8FFFFFFFFFBF1B
:10346000FFFFFFF801FFFEBEFFDDDFFFFFEFFFFF05
:10347000FFCFBFFFFE0FFF007FFEDDFFDDFFFFFF81
:10348000FFFFFFFFCFBFFFFC07FC007FFEE3FFDD78
:10349000FFFFFFFFFFFFFFCFBFFFF9F3E0007FFF5C
:1034A000FFFFE3FFFFFFFFFFFFFFCFBFFFFBFBE0DF
:1034B00003FFFF7EFFFFFFFFFE1FFFFFFFFFBFFFBA
:1034C000FBFBE1FFFFFEFCFFDFDFFFF80FFFFFF874
:1034D00003BFFFF9F3FFFFFFFEFAFFC01FFFF1E795
:1034E000FFFFF803BFFFF8E7FFF87FFEF6FFDFDF1F
:1034F000FFF7F7FFFFF803BFFFF8EFFC007FFF0CBB
:10350000FFFFFFFFEFF7FFFFF9F3BFFFFFFFE00053
:103510007FFFFFFFFFFFFFEFF7FFFFF803BFFFFB9A
:10352000FBE003FFFFFFFFFFFFFFEFEFFFFFFC07E5
:10353000BFFFF803E00FFFFFBBFFFFFFFFE78FFFB9
:10354000FFFE0FBFFFF803FC07FFFFD7FFFFFFFFE2
:10355000F01FFFFFFFFFBFFFFBBBF800FFFFEFFF08
:10356000FFFFFFF87FFFFFFFFFBFFFFFBFF0407FC0
:10357000FFD7FFFFFFFFFFFFFFFFF803BFFFFBBB0E
:10358000E0F07FFFBBFFFFFFFFFFFFFFFFF803BF80
:10359000FFF803E1F87FFFFFFFFFFFFFFE1FFFFFC4
:1035A000F803BFFFF803E3FE7FFFFFFFFFFFFFF815
:1035B0000FFFFFFFFFBFFFFBFBE7FFFFFF7EFFFFEC
:1035C000FFFFF1E7FFFFFFFFBFFFFFFFFFFFFFFE72
:1035D00000FFFFFFFFF7F7FFFFFC67BFFFFFFFFFE5
:1035E000FFFFFFFEFFFFFFFFEFF7FFFFF823BFFF27
:1035F000FFFFFFFFFFFFFFFFFFFFFFEFF7FFFFF8FA
:1036000033BFFFFFFFFFFFFFFFFFFFFFFFFFEFEFF6
:10361000FFFFF933BFFFFFFFFFFFFFFFFEFFFFFFCD
:10362000FFE78FFFFFF983BFFFFFFFFFF87FFF3E3C
:10363000FFFFFFFFF01FFFFFF883BFFFFFFFFC004E
:103640007FFEBEFFFFFFFFF87FFFFFFCC7BFFFFF4E
:10365000FFE0007FFEDDFFFFFFFFFFFFFFFFFFFF3B
:10366000BFFFFFFFE0007FFEE3FFFFFFFFFFFFFC68
:10367000FFFFFFBFFFFFFFE1FC7FFFFFFFFFFBFF3F
:10368000FFFFF07FF803BFFFFFFFE3FC7FFF7EFF3C
:10369000FFF3FFFFFFC07FF803BFFFFFFFE3F87FEB
:1036A000FEFCFFFFE3FFFFFF807FF803BFFFFFFF8C
:1036B000E1E07FFEFAFFFFE1FFFFFF8C7FF99FBF94
:1036C000FFFFFFE000FFFEF6FFFFC1FFFFFF187FD7
:1036D000F81FBFFFFFFFF001FFFF0CFFFFC1FFFF5F
:1036E000FE187FF81FBFFFFFFFF807FFFFFFFCFF7B
:1036F000C0FFFFFE387FFC3FBFFFFFFFFFF87FFFEB
:10370000FFFE1FC07FFFFE387FFFFFBFFFFFFFFCF4
:10371000007FFFFFFE0FC07FFFFE307FFFFFBFFF78
:10372000FFFFE0007FFFFC1E03C03FFFFE307FF87D
:1037300003BFFFFFFFE003FFFFFC0601C03FFFFEEA
:10374000707FF803BFFFFFFFE1FFFFFFFC0200C037
:103750001FFFFE637FF803BFFFFFFFFFF0FFFFF8CF
:103760000200401C1FFE677FFFF3BFFFFFFFF870E2
:103770007FFFF842004019CFFE667FFFF3BFFFFFD7
:10378000FFF0107FFFF862006013F7FF66FFFFF3A2
:10379000BFFFFFFFE01C7FFFFC7200601FF7FF3CD4
:1037A000FFFFFFBFFFFFFFE20C7FFE1C7200201F28
:1037B000F3FF39FFFFF3BFFFFFFFE30C7FF807F2D2
:1037C00000201FF3FF93FFFE03BFFFFFFFE1807F99
:1037D000FC3FFE00201FF3FF9FFFF803BFFFFFFF2A
:1037E000E080FFFC300E00203FF3FF9FFFF807BF93
:1037F000FFFFFFE0C1FFFC300600203FE7FF9FFF17
:10380000F8E7BFFFFFFFF8FFFFFC100200207FC7B3
:10381000FFBFFFF807BFFFFFFFFFFFFFFC1802001D
:10382000207F0FFFBFFFF803BFFFFFFFFFF87FFE02
:103830000C020021F01FFF98FFFE03BFFFFFFFFCFB
:10384000007FC204030021803FF893FFFFF3BFFF16
:10385000FFFFE0007FC102030023007FF217FFFBA0
:10386000FFBFFFFFFFE003FFE08181002600FFE7CD
:1038700087FFF8FFBFFFFFFFE18FFFE0C0E1802C73
:1038800003FFFF8FFFF87FBFFFFFFFE38FFFFFF016
:103890007F802C0FFDFFCE3FFC03BFFFFFFFE30F38
:1038A000FFF07FFFC0383FFCFFCDFFFF03BFFFFFEE
:1038B000FFE00FFF803E00F038FFFEFBE9FFFC0356
:1038C0009FFFFFFFE01FFC000C003FF9FFFF79E3C3
:1038D000FFF87F9FFFFFFFF03FFC000600383B81B1
:1038E000FE7C03FFF8FF9FFFFFFFFFFFFC000600C9
:1038F000601F003EFFF3FFFBFF9FFFFFFFFFF87E0F
:103900003FF307C00E0001FFF9FFFFFFBFFFFFFFFE
:10391000FC007F201F03800C0003FFFCFFFFFFBFA4
:10392000FFFFFFE0007F1007830008007FFFF87FA4
:10393000FFFFBFFFFFFFE0007FF001810079FFFF85
:10394000FFFB1FFFFFBFFFFFFFE1FC7FF800C1018E
:10395000F78FFFFFFBCFFFFF3FFFFFFFFFFC7F085D
:1039600000E101FE03FFFFFBE1FFFF3FFFFFFFFF61
:10397000FC7E0401FB03FF01FFFFF9F87FFF7FFFDF
:10398000FFFFFFFC7C0E0F0F03FFC0FFFFFFFF00D8
:103990001F7FFFFFFFFFFCF83FF80383FFF0FFFFEF
:1039A000FFFFFFFE7FFFFFFFFFFE703CE001839FF4
:1039B000F87FFFFFFFFFFEFFFFFFFFFFF8780180AA
:1039C0000083BFFC7FFF1FFFFFFCFFFFFFFFFFC067
:1039D0007C0300004337FE7FFF03FFFFFDFFFFFF77
:1039E000FFFF00FE0600006333FF3CFF01FFFFF90D
:1039F000FFFFFFFFFC03E79C0001FF31FF9CFF80FE
:103A00007FFFF3FFFFFFFFF003F0F80003F2103F2A
:103A1000C1FFC07FFFF7FFFFFFFFE063FF0000066D
:103A2000661001FFFFC03FFFE7FFFFFFFFE003FF5E
:103A3000C0000CC618003FFFE03FFFCFFFFFFFFFB5
:103A4000E0007C000018C608000FFFF83FFF9FFF52
:103A5000FFFFFFFC007E000060C30FFFEF3FFC1F75
:103A6000FE7FFFFFFFFFFFF87F8000C18307FFEFAE
:103A7000C7FF1FF8FFFFFFFFFFFFFFFFC00301832A
:103A800087FFCFF83FFFE3FFFFFFFFFFFFFFFFF0E0
:103A90000C018383FFCFFFC0000FFFFFFFFFFFE795
:103AA000FFFFFFF00181C1FFFFFFC0007FFFFFFFAD
:103AB000FFFFE0FFFFFFC00181E1FFFFFF9FFFFF6E
:103AC000FFFFFFFFFFE0187FFF8003C1F0FFFFFE55
:103AD0003FFFFFFFFFFFFFFFF0007FFE0003C1FC81
:103AE000FFFFFCFFFFFFFFFFFFFFFFFE007FFC006B
:103AF00007C1FE7FFFF9FFFFFFFFFFFFFFFFFE0390
:103B0000FFF8000FE1FE7FFC07FFFFFFFFFFFFFF55
:103B1000FFFC1FFFF8001FE1FF7FC007FFFFFFFF53
:103B2000FFFFFFFFF07FFFF0007FE1FE7F8007FFD8
:103B3000FFFFFFFFFFFFFFE0FFFFF003CFF3EE7F8C
:103B40000007FFFFFFFFFFFFFFFFE1FFFFF07FCF59
:103B5000F3E0FF0007FFFFFFFFFFFFFFFFE7FFFFAF
:103B6000F3FFDFF7F3FF8007FFFFFFFFFFFFFFFF1C
:103B7000FFFFFFFFFFDFF7FFFF8007FFFFFFFFFFF4
:103B8000FFFFFFFFFFFFFFFFCFEFFFFFFC0FFFFF78
:103B9000FFFFFFFFFFFFFFFFFFFFFFE7DFFFFFFC70
:103BA0000FFFFFFFFFFFFFFFFFFFFFFFFFFFF03FE4
:103BB000FFFFFC0FFFFFFFFFFFFFFFFFFFFFFFFF08
:103BC000FFF8FFFFFFFE1FFFFFFFFFFFFFFFFFFFED
:103BD000FFFFFFFFFFFFFFFFFE3FFFFFFFFFFFFFB6
:103BE000FFFFFFFFFFFFFFFFFFFFFFFFFFFFFFFFE5
:103BF000FFFFFFFFFFFFFFFFFFFFFFFFFFFFFFFFD5
:103C0000FFFFFFFFFFFFFFFFFFFFFFFFFFFFFFFFC4
:103C1000FFFFFFFFFFFFFFFFFFFFFFFFFFFFFFFFB4
:103C2000FFFFFFFFFFFFFFFFFFFFFFFFFFFFFFFFA4
:103C3000FFFFFFFFFFFFFFFFFFFFFFFFFFFFFFFF94
:103C4000FFFFFFFFFFFFFFFFFFFFFFFFFFFFFFFF84
:103C5000FFFFFFFFFE3FFFFFFFFFFFFFFFFFFFFF35
:103C6000FC7FFFFFFFFFFFFE3FFFFFFFFFFFFFFFA8
:103C7000FFFFFFFC7FFFFFFFFFFFFE3FFFFFFFFF98
:103C8000FFFFFFFFFFFFFC7FBFFFFFFFFFFE3FFFC8
:103C9000FFFFFFFFFFFFFFFFFFFC7F9FFFFFFFFF17
:103CA000FE3FFFFFFFFFFFFFFFFFFFFFFC7FA7FFC0
:103CB000FFFFFFFE3FFFFFFFFFFFFFFFFFFFFFFCD8
:103CC0007FF9FFFFFFFFFE3FFFFFFFFFFFFFFFFF4B
:103CD000FFFFFC7FE7FFFFFFFFFE3FFFFFFFFFFF50
:103CE000FFFFFFFFFFFC7F9FFFFFFFFFFE3FFFFF88
:103CF000FFF800001C00001FFC7FE7FFFFFFFFFE36
:103D00003FFFFFFFF000000800000FFC7FF9FFFFFE
:103D1000FFFFFE3FFFFFFFD800000800001BFC7FF5
:103D2000A7FFFFFFFFFE3FFFFFFF8C00001C00000E
:103D300031FC7F9FFFFFFFFFFE3F0000FF8600007A
:103D400036000061FC7FBFFFFFFFFFFE3F7FFEFFED
:103D5000830000630000C1FC7FBFFFFFFFFFFE3F49
:103D60007FFEFF818000C1800181FC7F9FFFFFFFFC
:103D7000FFFE3F7BBEFF80FFFF80FFFF01FC7FA7B0
:103D8000FFFFFFFFFE3F7BBAFF80FFFF80FFFF01C9
:103D9000FC7FF9FFFFFFFFFE3F4002FF80FFFF8037
:103DA000FFFF01FC7FE7FFFFFFFFFE3F7B7EFF8001
:103DB000FFFF80FFFF01FC7F9FFFFFFFFFFE3F5FD4
:103DC0004AFF80FFFF80FFFF01FC7FE7FFFFFFFF4F
:103DD000FE3F4056FF80FFFF80FFFF01FC7FF9FFA1
:103DE000FFFFFFFE3F554AFF80FFFF80FFFF01FC02
:103DF0007FA7FFFFFFFFFE3F557EFF80FFFF80FF95
:103E0000FF01FC7F9FFFFFFFFFFE3F554AFF80FF42
:103E1000FF80FFFF01FC7FBFFFFFFFFEFE3F40165C
:103E2000FF80FFFF80FFFF01FC7FBFFFFFFFFEFE63
:103E30003F5ECAFF80FFFF80FFFF01FC7F9FFFFF07
:103E4000FF1CFE3F7FFEFF80FFFF80FFFF01FC7F26
:103E5000A7FFFFFF39FE3F7FFEFF80FFFF80FFFFD0
:103E600001FC7FF9FFFFFF07FE3F7FFEFF8180001F
:103E7000C1800181FC7FE7FFFFC00FFE3F6002FFB2
:103E8000830000630000C1FC7F9FFFFFFE07FE3F31
:103E90006EF6FF86000036000061FC7FE7FFFFFE44
:103EA00077FE3F6EEEFF8C00001C000031FC7FF9B6
:103EB000FFFFFCF9FE3F6EFEFFD800000800001B6C
:103EC000FC7FA7FFFFFFFCFE3F6EFEFFF000000837
:103ED00000000FFC7F9FFFFFFFFCFE3F607EFFF8AE
:103EE00000001C00001FFC7FBFFFFFFFFEFE3F5EC7
:103EF0009EFFFFFFFFFFFFFFFFFC7FFFFFFFFFFEB7
:103F0000FE3F5EEEFFFFFFFFFFFFFFFFFC7FF9FFBD
:103F1000FFFFFFFE3F5EF6FFFFFFFFFFFFFFFFFC1F
:103F20007FFFFFFFFFFFFE3F7EC2FFFFFFFFFFFFA0
:103F3000FFFFFC7FFFFFFFFFFFFE3F7FFEFFF8005C
:103F4000001C00001FFC7FC3FFFFFFFFFE3F7FFE42
:103F5000FFF000000800000FFC7FBDFFFFFFFDFE2B
:103F60003F7FFAFFD800000800001BFC7FBDFFFF69
:103F7000F9C1FE3F6006FF8C00001C000031FC7F91
:103F8000BDFFFFFFF9FE3F6BFEFF8600003600001D
:103F900061FC7FDBDFFFFFE1FE3F6BBAFF830000C8
:103FA000630000C1FC7F801FFFF92DFE3F609AFF78
:103FB000818000C1800181FC7FBFDFFFF82DFE3FC3
:103FC0006AAAFF80FFFF80FFFF01FC7FFFFFFFC3A6
:103FD00008FE3F4AB6FF80FFFF80FFFF01FC7FBD68
:103FE000FFFFF206FE3F6AB6FF80FFFF80FFFF0182
:103FF000FC7D81FFFFF74E7E3F60AAFF80FFFF80C0
:10400000FFFF01FC7FFDFFFFFFCF7E3F6B9AFF802C
:10401000FFFF80FFFF01FC7FFFFFFFFFFF7E3F6B85
:10402000FAFF80FFFF80FFFF01FC7FBFDFFFFFFF84
:104030007E3F7FFEFF80FFFF80FFFF01FC7F9FDF51
:10404000FFFFFF7E3F7FFEFF80FFFF80FFFF01FC41
:104050007FA33FFFFFFFFE3F0000FF80FFFF80FFC9
:10406000FF01FC7FFCFFFFFFDFFE3FFFFFFF80FF44
:10407000FF80FFFF01FC7FA3FFFFFFDFFE3FFFFF8D
:10408000FF80FFFF80FFFF01FC7F9FFFFFFFBFFE60
:104090003FFFFFFF80FFFF80FFFF01FC7FBFFFFFAF
:1040A000F7BFFE3FFFFFFF80FFFF80FFFF01FC7FA8
:1040B000FFFFFFF6A7FE3FFFFFFF818000C18001E9
:1040C00081FC7FBFFFFFF1177E3FFFFFFF830000F2
:1040D000630000C1FC7F83FFFF83477E3FFFFFFF3C
:1040E00086000036000061FC7FFDFFFFE15F3E3F80
:1040F000FFFFFF8C00001C000031FC7FFDFFFFE490
:10410000003E3FFFFFFFD800000800001BFC7FBB04
:10411000FFFFF73FFE3FFFFFFFF000000800000F2A
:10412000FC7F81FFFFFF3FFE3FFFFFFFF800001C09
:1041300000001FFC7FFDFFFFFF3FFE3FFFFFFFFF73
:10414000FFFFFFFFFFFFFC7FFFFFFFFF3FFE3FFF83
:10415000FFFFFFFFFFFFFFFFFFFC7FBDFFFFFFFF34
:10416000FE3FFFFFFFFFFFFFFFFFFFFFFC7F81FF21
:10417000FFFFFFFE3FFFFFFFFFFFFFFFFFFFFFFC13
:104180007FDDFFFFFFFFFE3FFFFFFFFFFFFFFFFFA2
:10419000FFE1FC7FBFFFFFFFFFFE000000FFFFFF0E
:1041A000FFFFFFFFE1FC7FBDFFFFFFEDFE00000012
:1041B000FFFFFFFFFFFFFFE1FC7FC1FFFFFC1BFED6
:1041C000000000FFFFFFFFFFFFFFE1FC7FFDFFFF9F
:1041D000FD47FE3FFFFFFFFFFFFFFFFFFFFFFC7FED
:1041E000FFFFFFC0007E3FFFFFFFFFFFFFFFFFFF5E
:1041F000FFFC7FFFFFFFFAAFFE3FFFFFFFFFFFFF68
:10420000FFFFFFFFFC7FEFFFFFFFDBFE3FFFFFFF36
:10421000FFFFFFFFFFFFFFFC7FEFFFFFFE51FE3FB1
:10422000FFFFFFF800001C00001FFC7FEFFFFFFEF8
:1042300003FE3FFFFFFFF000000800000FFC7FFFC0
:10424000FFFFFC13FE3FFFFFFFD800000800001B2C
:10425000FC7FC3FFFFFCABFE3FFFFFFF8C00001C99
:10426000000031FC7FBDFFFFFF2BFE3FFFFFFF86FD
:10427000000036000061FC7FBDFFFFFFF3FE3FFF43
:10428000FFFF830000630000C1FC7FBDFFFFFFFF55
:10429000FE3FFFFFFF818000C1800181FC7BDBFFCF
:1042A000FFFFFFFE3FFFFFFF80FFFF80FFFF01FCDE
:1042B0007801FFFFFFFFFE3FFFFFFF80FFFF80FF52
:1042C000FF01FC7FFDFFFFFFFFFE3FFFFFFF80FFC1
:1042D000FF80FFFF01FC7FFFFFFFFFFFFE3FFFFFAF
:1042E000FF80FFFF80FFFF01FC7FBDFFFFFC3FFE63
:1042F0003F0000FF80FFFF80FFFF01FC7D81FFFF8B
:10430000FCDFFE3F7FFEFF80FFFF80FFFF01FC7FA1
:10431000FDFFFFFD0FFE3F7FFEFF80FFFF80FFFFE1
:1043200001FC7FFFFFFFC007FE3F7DDEFF80FFFF38
:1043300080FFFF01FC7FC9FFFFC003FE3F7BDEFF64
:1043400080FFFF80FFFF01FC7FADFFFFF95CFE3FB8
:10435000705EFF80FFFF80FFFF01FC7FADFFFFF974
:10436000ECFE3F4FDEFF80FFFF80FFFF01FC7F93ED
:10437000FFFFF81CFE3F7DDEFF80FFFF80FFFF0197
:10438000FC7FFFFFFFF8FCFE3F7D82FF80FFFF8088
:10439000FFFF01FC7FFFFFFFFFFCFE3F40DEFF81D0
:1043A0008000C1800181FC7FBFDFFFFFE8FE3F7B13
:1043B0005EFF830000630000C1FC7F801FFFFFF1F0
:1043C000FE3F775EFF86000036000061FC7FDBDF8A
:1043D000FFFFFFFE3F6F5EFF8C00001C000031FC02
:1043E0007FBDFFFFFFFFFE3F7C5EFFD8000008009F
:1043F000001BFC7FBDFFFFFFFFFE3F7FFEFFF000C5
:10440000000800000FFC7FBDFFFFFF9FFE3F7FFE07
:10441000FFF800001C00001FFC7FC3FFFFFFBFFE72
:104420003F7FFEFFFFFFFFFFFFFFFFFC7FFFFFFF60
:10443000F3BFFE3F6002FFFFFFFFFFFFFFFFFC7BBC
:10444000FDFFFFF73FFE3F6EF6FFFFFFFFFFFFFFA1
:10445000FFFC7801FFFFEF7EFE3F6EEEFFFFFFFFE8
:10446000FFFFFFFFFC7FFDFFFFED7E7E3F6EFEFF47
:10447000FFFFFFFFFFFFFFFC7FFFFFFFE0007E3F2E
:104480006EFEFFFFFFFFFFFFFFFFFC7FDBFFFFE68E
:104490007FFE3F607EFFE7FFFFFFFFFFFFFC7FB572
:1044A000FFFFEE7FFE3F5E9EFFC3FFFFFFFFFFFFAC
:1044B000FC7FB5FFFFFE7FFE3F5EEEFF99FFFFFF33
:1044C000FFFFFFFC7FB5FFFFFE7FFE3F5EF6FF991B
:1044D000FFFFFFFFFFFFFC7FC1FFFFFFFFFE3F7EEF
:1044E000C2FFC3FFFFFFFFFFFFFC7FFDFFFFFFFFDA
:1044F000FE3F7FFEFFE7FFFFFFFFFFFFFC7FFFFFA9
:10450000FFFFFFFE3F7FFEFFFFFFFFFFFFFFFFFC00
:104510007FBFDFFFFFFFFE3F7FFAFFFFFFFFFFFFD1
:10452000FFFFFC7F9FDFFFFFFFFE3F6006FFFE01F6
:10453000F007FFFFFFFC7FA33FFFFFFFFE3F6BFE87
:10454000FFFC00E003FFFFFFFC7FFCFFFFFFFFFE1F
:104550003F6BBAFFFC00E003FFFFFFFC7FA3FFFF00
:10456000FFFFFE3F609AFFE601B007FFFFFFFC7F01
:104570009FFFFFFFFFFE3F6AAAFFC303180FFFFF65
:10458000FFFC7FBFFFFFFFFFFE3F4AB6FFC1FE0FEC
:10459000FFFFFFFFFC7FFFFFFFFFFFFE3F6AB6FF4D
:1045A000C1FE0FFFFFFFFFFC7FFFFFFFFFFFFE3F8E
:1045B00060AAFFC1FE0FFFFFFFFFFC7FF9FFFFFFB7
:1045C000FFFE3F6B9AFFC1FE0FFFFFFFFFFC7FFF67
:1045D000FFFFFFFFFE3F6BFAFFC1FE0FFFFFFFFF74
:1045E000FC7FFFFFFFFFFFFE3F7FFEFFC1FE0FFFCF
:1045F000FFFFFFFC7FC3FFFFFFFFFE3F7FFEFFC10A
:10460000FE0FFFFFFFFFFC7FBDFFFFFFFFFE3F0030
:1046100000FFC1FE0FFFFFFFFFFC7FBDFFFFFFFF9D
:10462000FE3FFFFFFFC3FF1FFFFFFFFFFC7FBDFF3C
:10463000FFFFFFFE3FFFFFFFE7FFBFFFFFFFFFFCA6
:104640007F9BFFFFFFFFFE3FFFFFFFFFFFFFFFFF1F
:10465000FFFFFC7FFFFFFFFFFFFE3FFFFFFFFFFFAE
:10466000FFFFFFFFFFFC7FBDFFFFFFFFFE3FFFFFE0
:10467000FFFFFFFFFFFFFFFFFC7F81FFFFFFFFFE4C
:104680003FFFFFFFFFFFFFFFFFFFFFFC7FDDFFFF9F
:10469000FFFFFE3FFFFFFFFFFFFFFFFFFFFFFC7F6E
:1046A000BFFFFFFFFFFE3FFFFFFFFFFFFFFFFFFF1B
:1046B000FFFC7FBDFFFFFFFFFE3FFFFFFFFFFFFF90
:1046C000FFFFFFFFFC7FC1FFFFFFFFFE3FFFFFFF7C
:1046D000FFFFFFFFFFFFFFFC7FFDFFFFFFFFFE3F30
:1046E000FFFFFFFFFFFFFFFFFFFFFC7FFFFFFFFF5D
:1046F000FFFE3FFFFFFFFFFFFFFFFFFFFFFFFFFF8B
:10470000FFFFFFFFFFFFFFFFFFFFFFFFFFFFFFFFB9
:10471000FFFFFFFFFFFFFFFFFFFFFFFFFFFFFFFFA9
:10472000FFFFFFFFFFFFFFFFFFFFFFFFFFFFFFFF99
:10473000FFFFFFFFFFFFFFFFFFFFFFFFFFFFFFFF89
:10474000FFFFFFFFFFFFFFFFFFFFFFFFFFFFFFFF79
:10475000FFFFFFFFFFFFFFFFFFFFFFFFFFFFFFFF69
:10476000FFFFFFFFFFFFFFFFFFFFFFFFFFFFFFFF59
:10477000FFFFFFFFFFFFFFFFFFFFFFFFFFFFFFFF49
:10478000FFFFFFFFFFFFFFFFFFFFFFFFFFFFFFFF39
:10479000FFFFFFFFFFFFFFFFFFFFFFFFFE3FFFFFEA
:1047A000FFFFFFFFFFFFFFFFFC7FFFFFFFFFFFFE9D
:1047B0003FFFFFFFFFFFFFFFFFFFFFFC7FFFFFFF4C
:1047C000FFFFFE3FFFFFFFFFFFFFFFFFFFFFFC7F3D
:1047D000BFFFFFFFFFFE3FFFFFFFFFFFFFFFFFFFEA
:1047E000FFFC7F9FFFFFFFFFFE3FFFFFFFFFFFFF7D
:1047F000FFFFFFFFFC7FA7FFFFFFFFFE3FFFFFFF65
:10480000FFFFFFFFFFFFFFFC7FF9FFFFFFFFFE3F02
:10481000FFFFFFFFFFFFFFFFFFFFFC7FE7FFFFFF43
:10482000FFFE3FFFFFFFFFFFFFFFFFFFFFFC7F9F3C
:10483000FFFFFFFFFE3FFFFFFFFFFFFFFFFFFFFF49
:10484000FC7FE7FFFFFFFFFE3FFFFFFFFFFFFFFFD4
:10485000FFFFFFFC7FF9FFFFFFFFFE3FFFFFFFFFB2
:10486000FFFFFFFFFFFFFC7FA7FFFFFFFFFE3FFFF4
:10487000FFFFFFFFFFFFFFFFFFFC7F9FFFFFFFFF2B
:10488000FE3FFFFFFFFFFFFFFFFFFFFFFC7FBFFFBC
:10489000FFFFFFFE3FFFFFFFFFFFFFFFFFFFFFFCEC
:1048A0007FBFFFFFFFFFFE3FFFFFFFFFFFFFFFFF99
:1048B000FFFFFC7F9FFFFFFFFFFE3FFFFFFFFFFFAC
:1048C000FFFFFFFFFFFC7FA7FFFFFFFFFE3FFFFF94
:1048D000FFFFFFFFFFFFFFFFFC7FF9FFFFFFFFFE72
:1048E0003FFFFFFFFFFFFFFFFFFFFFFC7FE7FFFF33
:1048F000FFFFFE3FFFFFFFFFFFFFFFFFFFFFFC7F0C
:104900009FFFFFFFFFFE3FFFFFFFFFFFFFFFFFFFD8
:10491000FFFC7FE7FFFFFFFFFE3FFFFFFFFFFFFF03
:10492000FFFFFFFFFC7FF9FFFFFFFFFE3FFFFFFFE1
:10493000FFFFFFFFFFFFFFFC7FA7FFFFFFFFFE3F23
:10494000FFFFFFFFFFFFFFFFFFFFFC7F9FFFFFFF5A
:10495000FFFE3FFFFFFFFFFFFFFFFFFFFFFC7FBFEB
:10496000FFFFFFFEFE3FFFFFFFFFFFFFFFFFFFFF19
:10497000FC7FBFFFFFFFFEFE3FFFFFFFFFFFFFFFCC
:10498000FFFFFFFC7F9FFFFFFF1CFE3FFFFFFFFFBE
:10499000FFFFFFFFFFFFFC7FA7FFFFFF39FE3FFF89
:1049A000FFFFFFFFFFFFFFFFFFFC7FF9FFFFFF0798
:1049B000FE3FFFFFFFFFFFFFFFFFFFFFFC7FE7FF63
:1049C000FFC00FFE3FFFFFFFFFFFFFFFFFFFFFFCEA
:1049D0007F9FFFFFFE07FE3FFFFFFFFFFFFFFFFF81
:1049E000FFFFFC7FE7FFFFFE77FE3FFFFFFFFFFFBC
:1049F000FFFFFFFFFFFC7FF9FFFFFCF9FE3FFFFF1A
:104A0000FFFFFFFFFFFFFFFFFC7FA7FFFFFFFCFE95
:104A10003FFFFFFFFFFFFFFFFFFFFFFC7F9FFFFF49
:104A2000FFFCFE3FFFFFFFFFFFFFFFFFFFFFFC7FDD
:104A3000BFFFFFFFFEFE3FFFFFFFFFFFFFFFFFFF88
:104A4000FFFC7FFFFFFFFFFEFE3FFFFFFFFFFFFFBB
:104A5000FFFFFFFFFC7FF9FFFFFFFFFE3FFFFFFFB0
:104A6000FFFFFFFFFFFFFFFC7FFFFFFFFFFFFE3F9A
:104A7000FFFFFFFFFFFFFFFFFFFFFC7FFFFFFFFFC9
:104A8000FFFE3FFFFFFFFFFFFFFFFFFFFFFC7FC3B6
:104A9000FFFFFFFFFE3FFFFFFFFFFFFFFFFFFFFFE7
:104AA000FC7FBDFFFFFFFDFE3FFFFFFFFFFFFFFF9E
:104AB000FFFFFFFC7FBDFFFFF9C1FE3FFFFFFFFFD0
:104AC000FFFFFFFFFFFFFC7FBDFFFFFFF9FE3FFF82
:104AD000FFFFFFFFFFFFFFFFFFFC7FDBDFFFFFE1CB
:104AE000FE3FFFFFFFFFFFFFFFFFFFFFFC7F801F79
:104AF000FFF92DFE3FFFFFFFFFFFFFFFFFFFFFFC62
:104B00007FBFDFFFF82DFE3FFFFFFFFFFFFFFFFF2F
:104B1000FFFFFC7FFFFFFFC308FE3FFFFFFFFFFF1C
:104B2000FFFFFFFFFFFC7FBDFFFFF206FE3FFFFF21
:104B3000FFFFFFFFFFFFFFFFFC7D81FFFFF74E7EC2
:104B40003FFFFFFFFFFFFFFFFFFFFFFC7FFDFFFFBA
:104B5000FFCF7E3FFFFFFFFFFFFFFFFFFFFFFC7F59
:104B6000FFFFFFFFFF7E3FFFFFFFFFFFFFFFFFFF96
:104B7000FFFC7FBFDFFFFFFF7E3FFFFFFFFFFFFF69
:104B8000FFFFFFFFFC7F9FDFFFFFFF7E3FFFFFFF79
:104B9000FFFFFFFFFFFFFFFC7FA33FFFFFFFFE3F85
:104BA000FFFFFFFFFFFFFFFFFFFFFC7FFCFFFFFF9B
:104BB000DFFE3FFFFFFFFFFFFFFFFFFFFFFC7FA3C5
:104BC000FFFFFFDFFE3FFFFFFFFFFFFFFFFFFFFFD6
:104BD000FC7F9FFFFFFFBFFE3FFFFFFFFFFFFFFFC9
:104BE000FFFFFFFC7FBFFFFFF7BFFE3FFFFFFFFFA1
:104BF000FFFFFFFFFFFFFC7FFFFFFFF6A7FE3FFF6A
:104C0000FFFFFFFFFFFFFFFFFFFC7FBFFFFFF1176D
:104C10007E3FFFFFFFFFFFFFFFFFFFFFFC7F83FFE4
:104C2000FF83477E3FFFFFFFFFFFFFFFFFFFFFFC0C
:104C30007FFDFFFFE15F3E3FFFFFFFFFFFFFFFFF45
:104C4000FFFFFC7FFDFFFFE4003E3FFFFFFFFFFF94
:104C5000FFFFFFFFFFFC7FBBFFFFF73FFE3FFFFFB4
:104C6000FFFFFFFFFFFFFFFFFC7F81FFFFFF3FFE16
:104C70003FFFFFFFFFFFFFFFFFFFFFFC7FFDFFFF89
:104C8000FF3FFE3FFFFFFFFFFFFFFFFFFFFFFC7F38
:104C9000FFFFFFFF3FFE3FFFFFFFFFFFFFFFFFFFA5
:104CA000FFFC7FBDFFFFFFFFFE3FFFFFFFFFFFFF9A
:104CB000FFFFFFFFFC7F81FFFFFFFFFE3FFFFFFFC6
:104CC000FFFFFFFFFFFFFFFC7FDDFFFFFFFFFE3F5A
:104CD000FFFFFFFFFFFFFFFFFFFFFC7FBFFFFFFFA7
:104CE000FFFE000000FFFFFFFFFFFFFFFFFC7FBD97
:104CF000FFFFFFEDFE000000FFFFFFFFFFFFFFFFD4
:104D0000FC7FC1FFFFFC1BFE000000FFFFFFFFFF59
:104D1000FFFFFFFC7FFDFFFFFD47FE3FFFFFFFFFA3
:104D2000FFFFFFFFFFFFFC7FFFFFFFC0007E3FFF95
:104D3000FFFFFFFFFFFFFFFFFFFC7FFFFFFFFAAF5B
:104D4000FE3FFFFFFFFFFFFFFFFFFFFFFC7FEFFFC7
:104D5000FFFFDBFE3FFFFFFFFFFFFFFFFFFFFFFC4B
:104D60007FEFFFFFFE51FE3FFFFFFFFFFFFFFFFF53
:104D7000FFFFFC7FEFFFFFFE03FE3FFFFFFFFFFF94
:104D8000FFFFFFFFFFFC7FFFFFFFFC13FE3FFFFF66
:104D9000FFFFFFFFFFFFFFFFFC7FC3FFFFFCABFE3A
:104DA0003FFFFFFFFFFFFFFFFFFFFFFC7FBDFFFF98
:104DB000FF2BFE3FFFFFFFFFFFFFFFFFFFFFFC7F1B
:104DC000BDFFFFFFF3FE3FFFFFFFFFFFFFFFFFFF02
:104DD000FFFC7FBDFFFFFFFFFE3FFFFFFFFFFFFF69
:104DE000FFFFFFFFFC7BDBFFFFFFFFFE3FFFFFFF3F
:104DF000FFFFFFFFFFFFFFFC7801FFFFFFFFFE3F0C
:104E0000FFFFFFFFFFFFFFFFFFFFFC7FFDFFFFFF37
:104E1000FFFE3FFFFFFFFFFFFFFFFFFFFFFC7FFFE6
:104E2000FFFFFFFFFE3FFFFFFFFFFFFFFFFFFFFF53
:104E3000FC7FBDFFFFFC3FFE3FFFFFFFFFFFFFFFCB
:104E4000FFFFFFFC7D81FFFFFCDFFE3FFFFFFFFF59
:104E5000FFFFFFFFFFFFFC7FFDFFFFFD0FFE3FFF9A
:104E6000FFFFFFFFFFFFFFFFFFFC7FFFFFFFC0070C
:104E7000FE3FFFFFFFFFFFFFFFFFFFFFFC7FC9FFBC
:104E8000FFC003FE3FFFFFFFFFFFFFFFFFFFFFFC31
:104E90007FADFFFFF95CFE3FFFFFFFFFFFFFFFFF5E
:104EA000FFFFFC7FADFFFFF9ECFE3FFFFFFFFFFFC1
:104EB000FFFFFFFFFFFC7F93FFFFF81CFE3FFFFF9C
:104EC000FFFFFFFFFFFFFFFFFC7FFFFFFFF8FCFE80
:104ED0003FFFFFFFFFFFFFFFFFFFFFFC7FFFFFFF25
:104EE000FFFCFE3FFFFFFFFFFFFFFFFFFFFFFC7F19
:104EF000BFDFFFFFE8FE3FFFFFFFFFFFFFFFFFFFFA
:104F0000FFFC7F801FFFFFF1FE3FFFFFFFFFFFFF62
:104F1000FFFFFFFFFC7FDBDFFFFFFFFE3FFFFFFF29
:104F2000FFFFFFFFFFFFFFFC7FBDFFFFFFFFFE3F17
:104F3000FFFFFFFFFFFFFFFFFFFFFC7FBDFFFFFF46
:104F4000FFFE3FFFFFFFFFFFFFFFFFFFFFFC7FBDF7
:104F5000FFFFFF9FFE3FFFFFFFFFFFFFFFFFFFFF82
:104F6000FC7FC3FFFFFFBFFE3FFFFFFFFFFFFFFF11
:104F7000FFFFFFFC7FFFFFFFF3BFFE3FFFFFFFFFD1
:104F8000FFFFFFFFFFFFFC7BFDFFFFF73FFE3FFF43
:104F9000FFFFFFFFFFFFFFFFFFFC7801FFFFEF7E3A
:104FA000FE3FFFFFFFFFFFFFFFFFFFFFFC7FFDFF57
:104FB000FFED7E7E3FFFFFFFFFFFFFFFFFFFFFFCD8
:104FC0007FFFFFFFE0007E3FFFFFFFFFFFFFFFFFD0
:104FD000FFFFFC7FDBFFFFE67FFE3FFFFFFFFFFFE2
:104FE000FFFFFFFFFFFC7FB5FFFFEE7FFE3FFFFFF0
:104FF000FFFFFFFFFFFFFFFFFC7FB5FFFFFE7FFE10
:105000003FFFFFFFFFFFFFFFFFFFFFFC7FB5FFFF3D
:10501000FE7FFE3FFFFFFFFFFFFFFFFFFFFFFC7F65
:10502000C1FFFFFFFFFE3FFFFFFFFFFFFFFFFFFF8F
:10503000FFFC7FFDFFFFFFFFFE3FFFFFFFFFFFFFC6
:10504000FFFFFFFFFC7FFFFFFFFFFFFE3FFFFFFFB4
:10505000FFFFFFFFFFFFFFFC7FBFDFFFFFFFFE3F04
:10506000FFFFFFFFFFFFFFFFFFFFFC7F9FDFFFFF53
:10507000FFFE3FFFFFFFFFFFFFFFFFFFFFFC7FA3E0
:105080003FFFFFFFFE3FFFFFFFFFFFFFFFFFFFFFB1
:10509000FC7FFCFFFFFFFFFE3FFFFFFFFFFFFFFF67
:1050A000FFFFFFFC7FA3FFFFFFFFFE3FFFFFFFFFB0
:1050B000FFFFFFFFFFFFFC7F9FFFFFFFFFFE3FFFA4
:1050C000FFFFFFFFFFFFFFFFFFFC7FBFFFFFFFFFB3
:1050D000FE3FFFFFFFFFFFFFFFFFFFFFFC7FFFFF24
:1050E000FFFFFFFE3FFFFFFFFFFFFFFFFFFFFFFC94
:1050F0007FFFFFFFFFFFFE3FFFFFFFFFFFFFFFFF01
:10510000FFFFFC7FF9FFFFFFFFFE3FFFFFFFFFFFF9
:10511000FFFFFFFFFFFC7FFFFFFFFFFFFE3FFFFFE3
:10512000FFFFFFFFFFFFFFFFFC7FFFFFFFFFFFFE13
:105130003FFFFFFFFFFFFFFFFFFFFFFC7FC3FFFFFE
:10514000FFFFFE3FFFFFFFFFFFFFFFFFFFFFFC7FB3
:10515000BDFFFFFFFFFE3FFFFFFFFFFFFFFFFFFF62
:10516000FFFC7FBDFFFFFFFFFE3FFFFFFFFFFFFFD5
:10517000FFFFFFFFFC7FBDFFFFFFFFFE3FFFFFFFC5
:10518000FFFFFFFFFFFFFFFC7F9BFFFFFFFFFE3FD7
:10519000FFFFFFFFFFFFFFFFFFFFFC7FFFFFFFFFA2
:1051A000FFFE3FFFFFFFFFFFFFFFFFFFFFFC7FBD95
:1051B000FFFFFFFFFE3FFFFFFFFFFFFFFFFFFFFFC0
:1051C000FC7F81FFFFFFFFFE3FFFFFFFFFFFFFFFB1
:1051D000FFFFFFFC7FDDFFFFFFFFFE3FFFFFFFFF45
:1051E000FFFFFFFFFFFFFC7FBFFFFFFFFFFE3FFF53
:1051F000FFFFFFFFFFFFFFFFFFFC7FBDFFFFFFFF84
:10520000FE3FFFFFFFFFFFFFFFFFFFFFFC7FC1FF30
:10521000FFFFFFFE3FFFFFFFFFFFFFFFFFFFFFFC62
:105220007FFDFFFFFFFFFE3FFFFFFFFFFFFFFFFFD1
:10523000FFFFFC7FFFFFFFFFFFFE3FFFFFFFFFFFC2
:10524000FFFFFFFFFFFFFFFFFFFFFFFFFFFFFFFF6E
:10525000FFFFFFFFFFFFFFFFFFFFFFFFFFFFFFFF5E
:10526000FFFFFFFFFFFFFFFFFFFFFFFFFFFFFFFF4E
:10527000FFFFFFFFFFFFFFFFFFFFFFFFFFFFFFFF3E
:10528000FFFFFFFFFFFFFFFFFFFFFFFFFFFFFFFF2E
:10529000FFFFFFFFFF000000B852000800000020E1
:1052A000180000006C010008D0520008180000200F
:1052B000D819000088010008000000000102030462
:1052C00001020304060708090204060800000000A2
:0400000508000131BD
:00000001FF
